:020000040800F2
:10000000C0770020E90100081D170008C90B00088F
:1000100099110008650900089927000800000000F0
:100020000000000000000000000000004501000882
:10003000430A00080000000089010008D91E0008DA
:10004000030200080302000803020008030200087C
:10005000030200080302000803020008030200086C
:10006000030200080302000803020008030200085C
:10007000030200080302000803020008030200084C
:10008000030200080302000803020008030200083C
:10009000030200080302000803020008030200082C
:1000A000030200080302000803020008030200081C
:1000B00003020008D91F0008A52000080302000859
:1000C00003020008030200080302000803020008FC
:1000D00003020008ED220008FD2200080D2300089D
:1000E00003020008030200080302000803020008DC
:1000F00003020008030200080302000803020008CC
:1001000003020008030200080302000803020008BB
:10011000CD220008DD220008F120000803020008BB
:10012000030200080302000803020008030200089B
:10013000DFF80CD000F060FB0048004739310008C0
:10014000C0770020204B19680868B0E8F00F80F3F2
:100150000988BFF36F8F4FF0000080F311884EF0D5
:100160000D0E70470000000006480068006880F32C
:10017000088862B661B6BFF34F8FBFF36F8F00DFA1
:1001800000BF00BF08ED00E0EFF30980BFF36F8F01
:100190000D4B1A6820E9F00F106008B54FF0100001
:1001A00080F3118803F062FD4FF0000080F31188A6
:1001B000BDE8084019680868B0E8F00F80F30988C6
:1001C000BFF36F8F704700BFD4000020EFF31180A2
:1001D0004FF0100181F31188704780F31188704748
:1001E000EFF3058070470000064880470648004747
:1001F000FEE7FEE7FEE7FEE7FEE7FEE7FEE7FEE7D7
:10020000FEE7FEE7F91E00083101000840EA01039D
:100210009B0703D009E008C9121F08C0042AFAD2BC
:1002200003E011F8013B00F8013B521EF9D2704780
:10023000D2B201E000F8012B491EFBD27047002228
:10024000F6E710B513460A4604461946FFF7F0FFD5
:10025000204610BDF0B480EA0102D40F4200B2EB98
:10026000410F02D20246084611464A0042D0C30D51
:10027000DDB2C1F3C752AD1A202D35DAC1F3160134
:1002800041F4000204B15242C5F1200602FA06F11F
:100290002A411044B3EBD05F23D0C4B1012DA0EBB1
:1002A000C35009DCF0BC4FF0004202EAC352DBB29B
:1002B00000F5000000F014BA400000F1807000EB7F
:1002C000C350A0F1807040EAD170490009E04908AC
:1002D00041EAC071A0EBC35000F50000400800EBFC
:1002E000C350F0BC00F0F3B96142012202EB4101BE
:1002F000001BF6E7F0BC704781F00041AAE780F0F0
:100300000040A7E780EA010210B502F00043400078
:1003100022D04A001FD0010E01EB1261C0F356003B
:10032000C2F3560240F4000042F40002A0FB022097
:1003300000047F39140400D0401C50EA124001D45C
:100340004000491EC2B20C0604EBD010401C40080D
:10035000802A02D003E0002010BD20F00100002917
:1003600000DA0020184310BD30B480EA010202F028
:10037000004530F0004221F0004013D090B1C30D91
:10038000D40DC2F31601C0F31600E41A41F40001C3
:1003900040F400027D34914201D3641C00E0490026
:1003A000002C02DA30BC002070474FF4000000231C
:1003B000914201D3891A034340084FEA4101F7D122
:1003C00051B1914202D14FF0004105E002D24FF00D
:1003D000010101E06FF0010103EBC450284430BC7F
:1003E00000F075B92DE9FE4F81EA030404F00044E2
:1003F00021F0004100944FF0000B23F0004350EA3D
:1004000001045ED052EA03045BD0C3F30A54C1F383
:100410000A552C44A4F2F3340194A0FB0254C1F316
:10042000130141F48011C3F3130343F4801301FB60
:10043000024400FB034E840A970A44EA815447EAC7
:100440008357A4FB076802958D0A05FB07854FEAD1
:10045000932C04FB0C542705029D4FEA065847EAEB
:100460001637B5EB08056EEB070C870E920E47EAC0
:10047000811742EA8312A7FB0201B6EB0B0164EB82
:1004800000042B0D43EA0C335E1844EB1C50DA4693
:100490005146E7FB0201C5F313044FEA0B3343EA6D
:1004A00014534FEA0432019C43EA0603A4F10C04FE
:1004B0000294009CCDE900B400F04FF903B0BDE810
:1004C000F08F00200146F9E72DE9F04D81EA0304A1
:1004D00004F0004B21F0004514464FF0000A23F0D1
:1004E000004150EA050220D054EA01021DD0C5F3B4
:1004F0000A570246C5F31303C1F31300C1F30A56AA
:1005000040F4801543F48013A7EB0608101BD64671
:1005100008F2FD3873EB050002D308F1010801E091
:1005200092185B41B8F1000F03DA00200146BDE8E4
:10053000F08D00204FF48011064684460EE0171B14
:1005400073EB050705D3121B63EB050306434CEA67
:10055000010C49084FEA300092185B4150EA01074C
:10056000EDD152EA030012D082EA040083EA0501C9
:10057000084305D0101BAB4106D20122002306E040
:1005800000224FF0004302E06FF0010253101AEB1B
:1005900006004CEB085110EB0A0041EB0B01BDE8E3
:1005A000F04D00F0CBB8C10F80EAE0700844CA07F4
:1005B0009623002100F094B80EB5C10F80EAE070D8
:1005C0000844CA07002140F233438DE80E000A4672
:1005D0000B4600F0C2F803B000BD00F0004220F06E
:1005E0000040C10DC0F3160040F400007F2901DA7D
:1005F00000207047962903DCC1F19601C84001E054
:1006000096398840002AF4D04042704770B5C1F353
:100610000A5201F000450024C1F3130140F2FF33F8
:1006200041F480119A4201DA002070BD40F2334358
:100630009A42A2F2334203DC524200F038F800E062
:1006400090402C43F1D0404270BD01F0004330B4E3
:1006500021F0004150EA010206D00A0DA2F56072B5
:10066000C1F31301002A02DC30BC00207047440FA4
:1006700044EAC104C100E01830BC00EBC25000F0F5
:1006800026B830B50B46014600202022012409E09F
:1006900021FA02F59D4205D303FA02F5491B04FA3B
:1006A00002F52844151EA2F10102F1DC30BD202A1A
:1006B00004DB203A21FA02F00021704721FA02F30C
:1006C000D040C2F1200291400843194670470029EA
:1006D000A8BF7047401C490008BF20F001007047C8
:1006E00010B4B0FA80FC00FA0CF050EA010404BF28
:1006F00010BC704749B1CCF1200421FA04F411FA7E
:100700000CF118BF012121430843A3EB0C01CB1DC1
:100710004FEA00614FEA102042BF002010BC704732
:1007200000EBC35010440029A4BF10BC7047401C0C
:10073000490008BF20F0010010BC704710B5141E1E
:1007400073F1000408DA401C41F1000192185B418A
:100750001A4301D120F0010010BD2DE9F04D924661
:100760009B4611B1B1FA81F202E0B0FA80F2203278
:10077000904600F053F804460F4640EA0A0041EA6A
:100780000B0153465A46084313D0114653EA010061
:1007900019D0C8F140025046FFF789FF05460E46C2
:1007A00050465946424600F039F8084305D001202A
:1007B00004E020463946BDE8F08D0020054346EAB6
:1007C000E0762C4337430A986305E40AA0EB08005F
:1007D0000022FD0A44EA47540A3002D500200146AF
:1007E000E9E7010510196941DDE90845001969418A
:1007F000BDE8F04DA2E70000064C074D06E0E068BA
:1008000040F0010394E8070098471034AC42F6D357
:10081000FFF792FC6041000880410008202A04DBB9
:10082000203A00FA02F1002070479140C2F1200303
:1008300020FA03F319439040704770B58C1810F8F4
:10084000015B15F0070301D110F8013B2A1106D115
:1008500010F8012B03E010F8016B01F8016B5B1E2F
:10086000F9D12B0705D40023521E0DD401F8013B0A
:10087000FAE710F8013BCB1A921C03E013F8015B76
:1008800001F8015B521EF9D5A142D8D3002070BDFA
:100890001FB500201B4A0123CDE9012000930390DE
:1008A00003464FF4007218A11C4803F0A5FA00207B
:1008B0001B4A0223CDE901200093039003464FF425
:1008C000007218A11C4803F097FA00201B4A03236A
:1008D000CDE901200093039003464FF4007218A164
:1008E0001A4803F089FA0020194A0423CDE90120AF
:1008F0000093039003464FF4007216A1184803F0CA
:100900007BFA1FBD00000020765461736B55736540
:100910007250726F746F636F6C0000002D3D0008A1
:1009200004000020765461736B4D6F746F72436FD7
:100930006E74726F6C000000E73B00080800002036
:10094000765461736B494D5500000000D93B000897
:100950000C000020765461736B4272696467650015
:10096000993A000800BFFEE7014609B909487047F7
:10097000012901D10848FAE7022901D10748F6E721
:10098000032901D10648F2E7042901D10548EEE721
:100990000020ECE730020020580A002080120020DE
:1009A000A81A0020D022002008B525208DF80000CC
:1009B00001208DF8010000208DF8020001208DF843
:1009C0000300684600F0CAFE26208DF800000120D2
:1009D0008DF8010000208DF8020001208DF8030041
:1009E000684600F0BBFE27208DF8000001208DF83E
:1009F000010000208DF8020001208DF803006846F8
:100A000000F0ACFE34208DF8000001208DF80100CC
:100A100000208DF8020001208DF80300684600F0E8
:100A20009DFE35208DF8000001208DF8010000208A
:100A30008DF8020001208DF80300684600F08EFE5C
:100A400008BD704708B50120ADF8000018208DF8EA
:100A5000030003208DF802006946094800F012F8EF
:100A60004FF48070ADF8000018208DF803000320CB
:100A70008DF802006946024800F004F808BD000045
:100A8000000C01402DE9F04102460025002600201F
:100A900000230024002791F803C00CF00F0591F803
:100AA00003C00CF0100CBCF1000F03D091F802C091
:100AB0004CEA050591F800C0BCF1000F31D0146874
:100AC00000202BE04FF0010C0CFA00F3B1F800C04D
:100AD0000CEA03069E4220D183004FF00F0C0CFA63
:100AE00003F7BC4305FA03FC4CEA040491F803C085
:100AF000BCF1280F06D14FF0010C0CFA00FCC2F833
:100B000014C00AE091F803C0BCF1480F05D14FF0C2
:100B1000010C0CFA00FCC2F810C0401C0828D1D30C
:100B20001460B1F800C0BCF1FF0F34DD5468002040
:100B30002EE000F1080C4FF0010808FA0CF3B1F8B0
:100B400000C00CEA03069E4221D183004FF00F0C37
:100B50000CFA03F7BC4305FA03FC4CEA040491F8D1
:100B600003C0BCF1280F05D100F1080C08FA0CF8FD
:100B7000C2F8148091F803C0BCF1480F07D100F10E
:100B8000080C4FF0010808FA0CF8C2F81080401C5D
:100B90000828CED35460BDE8F081416170470161FF
:100BA0007047000006480068064908600448001DB8
:100BB000006848600248083000688860704700009C
:100BC000E8F7FF1FE001002009A100200CE00A5C0B
:100BD000124B1A8000BF114A121F128802F0400205
:100BE000002AF8D0421CD0B22A28F0D300BFFEE77A
:100BF0000D0A456E74657220486172644661756CB9
:100C0000745F48616E646C65722C205379737465EF
:100C10006D2048616C742E0D0A00000004380140FC
:100C20002DE9F04100260024A048408B13287DDBED
:100C30009E4880689D49098B405CAA2877D19B48D3
:100C40008168008B401C085CAA28F7D19748018B6B
:100C5000C089133881426BDB9448C089934B1B8B4E
:100C6000C21A92488068914B1B8BC1189048FFF7BD
:100C7000CDFA8E4B1B8B13338C4FFF89DA1B8B4BBA
:100C8000DB898B4F3B44894F3F8BD81B874B99683F
:100C9000FFF7BCFA022505E08548405D3044C6B246
:100CA000681CC5B2122DF7DB8148807CB04262D14E
:100CB0007E48008B13307D49C989401A7B490883DF
:100CC0000846408B1338488303242146641C784827
:100CD000425C2146641C405C42EA002000B2754937
:100CE00008802146641C7248425C2146641C405CBA
:100CF00042EA002000B26F4948802146641C6C48DB
:100D0000425C2146641C405C42EA002000B2694912
:100D100088802046611CCCB265490A5C2046611C73
:100D2000CCB26349085C42EA002002E0BCE0B8E0D3
:100D300033E000B25F49C8802046611CCCB25C49F8
:100D40000A5C2046611CCCB25949085C42EA00208A
:100D500000B2584908812046611CCCB254490A5C53
:100D60002046611CCCB25249085C42EA002000B225
:100D70005049488195E04D48008B401C4B49088301
:100D80000846408B401E48830846008BC98988422C
:100D9000F0D100204549088383E044488068434AF5
:100DA000128B811813224248FFF730FA022505E022
:100DB0003F48405D3044C6B2681CC5B2122DF7DB17
:100DC0003B48807CB0425BD13848008B13303749B8
:100DD00008830846408B1338488303242146641C4B
:100DE0003348425C2146641C405C42EA002000B269
:100DF000304908802146641C2D48425C2146641C11
:100E0000405C42EA002000B22A4948802146641C26
:100E10002748425C2146641C405C42EA002000B244
:100E2000244988802046611CCCB221490A5C2046B6
:100E3000611CCCB21E49085C42EA002000B21D4988
:100E4000C8802046611CCCB219490A5C2046611C4E
:100E5000CCB21749085C42EA002000B2154908816B
:100E60002046611CCCB212490A5C2146601CC4B207
:100E70000F48405C42EA002000B20E49488110E071
:100E80000A48008B401C094908830846408B401ED5
:100E900048830846008BC989884202D10020034953
:100EA0000883022001F06CFFBDE8F0818012002071
:100EB000AC010020A001002000B585B00121052073
:100EC00000F09EFC0121880300F09AFC4FF40070B2
:100ED000ADF8100018208DF8130003208DF81200D3
:100EE00004A9A448FFF7CEFD4FF48060ADF81000D0
:100EF00048208DF8130004A99E48FFF7C3FD4FF466
:100F0000E13000900020ADF80400ADF80600ADF827
:100F10000800ADF80C000C20ADF80A0069469648B0
:100F200001F060FA012240F22551934801F035FAB0
:100F3000012240F22441904801F02FFA01218E480D
:100F400001F0F5F940218C4801F0E8F90121052074
:100F500000F056FC0121480400F042FC0420ADF8EA
:100F6000100018208DF8130003208DF8120004A93A
:100F70008048FFF787FD0820ADF8100048208DF865
:100F8000130004A97B48FFF77DFD04A97948FFF70A
:100F900079FD4FF4E13000900020ADF80400ADF889
:100FA0000600ADF80800ADF80C000C20ADF80A0002
:100FB0006946724801F016FA012240F225516F4845
:100FC00001F0EBF9012240F224416C4801F0E5F90F
:100FD00001216A4801F0ABF94021684801F09EF90F
:100FE0000121092000F00CFC0121880400F0F8FB2D
:100FF0004FF48060ADF8100018208DF81300032026
:101000008DF8120004A95E48FFF73CFD4FF4006024
:10101000ADF8100004208DF8130004A95848FFF71C
:1010200031FD04A95648FFF72DFD4FF4E130009043
:101030000020ADF80400ADF80600ADF80800ADF8EA
:101040000C000C20ADF80A0069464E4801F0CAF9C0
:10105000012240F225514B4801F09FF901214948F6
:1010600001F065F94021474801F058F901211120AC
:1010700000F0C6FB0121C80400F0B2FB4FF4806011
:10108000ADF8100018208DF8130003208DF8120021
:1010900004A93D48FFF7F6FC4FF40060ADF81000DE
:1010A00004208DF8130004A93748FFF7EBFC4FF438
:1010B000614000900020ADF80400ADF80600ADF8E6
:1010C0000800ADF80C000C20ADF80A0069462F4866
:1010D00001F088F9012240F225512C4801F05DF918
:1010E00001212A4801F023F94021284801F016F98E
:1010F0000121312000F084FB0121080500F070FB84
:101100004FF48050ADF8100018208DF81300032024
:101110008DF8120004A91C48FFF7B4FC0420ADF8B8
:1011200010008DF8130004A91948FFF7ABFC4FF429
:10113000614000900020ADF80400ADF80600ADF865
:101140000800ADF80C000C20ADF80A006946114803
:1011500001F048F9012240F225510E4801F01DF935
:1011600001210C4801F0E3F840210A4801F0D6F8CB
:1011700005B000BD000801400038014000440040B7
:10118000000C01400048004000100140004C0040AD
:10119000001401400050004000BFFEE72DE9F04F71
:1011A00091B04FF00008C246C1460027BB4600245C
:1011B0004948007840B901204749087040F6B830E6
:1011C00002F072FC00F076FA44480078002870D0F3
:1011D00000204249087063E04148008B4149085CA7
:1011E000AA2851D13E48008B401C085C55284BD1A1
:1011F0003B48008B801C0C5C39488068384A128B55
:101200008118221D01A8FFF701F801A9E01C0E5C5E
:101210000027002504E001A9A81C085C47406D1CBC
:10122000A542F8DDB7422FD19DF80700012804D070
:10123000092823D00E2826D11FE09DF809009DF82B
:101240000A1040EA01200FFA80F89DF80B009DF883
:101250000C1040EA01200FFA80FA9DF80D009DF86D
:101260000E1040EA01200FFA80F94946404601F08D
:10127000BBFD32201C49088005E004E09DF8080011
:101280001A49087000BF00BF1548008B401C80B28F
:1012900013490883C989884202DB0020104908836A
:1012A0000F48008B0E49C98A884295D1002001F071
:1012B00067FD0D48B0F9000000280ADD0A480088E3
:1012C000401E00B20849088018B90021084601F004
:1012D0008BFD11B0BDE8F08F50000020A800002069
:1012E00030020020580600204E0000207900002027
:1012F00070B504460E461546022C22DA1748005DEA
:10130000082804D01548801E005DB04219D013484B
:10131000005D082808D0002000F064F8012000F0EB
:1013200061F84B2002F0C0FB3146204600F018F86F
:101330000A2001F052FD032108480155204602F021
:10134000A3FA2946204600F037F835B90348005D76
:10135000082802D0204600F045F870BD0C0200209D
:1013600070B504460D4684B93DB980210F48FFF79A
:1013700016FC00210E48015517E080210B48FFF7AD
:101380000CFC01210A4801550FE03DB980210948B4
:10139000FFF705FC00210648015506E080210548BD
:1013A000FFF7FBFB01210248015570BD0008014019
:1013B0000A020020000C014070B504460D460848A2
:1013C00020F81450801D005D082807D0A8B202F054
:1013D00051FA06463146204602F010FA70BD000070
:1013E0000602002010B504460A48005D082810D007
:1013F0001CB901210848FFF7D0FB012C03D12102C1
:101400000548FFF7CAFB204602F058FA08210148B8
:10141000015510BD0C020020000C014000B591B038
:101420009B48408B20287ADB99488068984A128B29
:101430008118202209A8FEF7E9FE9548008B20308C
:10144000934908830846408B20384883032001F0E5
:1014500097FC9DF83C00E82827D19DF84000E9283A
:1014600023D103210FA801F07DFC9DF83F10884295
:101470001BD1032110A801F075FC9DF84310884290
:1014800013D19DF83D0000069DF83E1000EB014091
:101490009DF8411000EB01209DF8421008447D4961
:1014A000C8600846C0687C4908609DF83000E428A0
:1014B00014D103210CA801F055FC9DF8331088428B
:1014C0000CD19DF832009DF8311000EB01207149DC
:1014D000C8800846C08800B2704908809DF82C007A
:1014E000E22823D103210BA801F03CFC9DF82F102A
:1014F00088421BD19DF82E009DF82D1000EB012095
:10150000644988800846808840F2DC51884207DDC3
:101510006348007840F001006149087006E01AE075
:101520005F48007820F001005D4908709DF82400B4
:1015300080280BD1032109A801F014FC9DF8271085
:10154000884203D19DF8260052490870514880888E
:1015500000B2524908805348408B20287ADB51481A
:101560008068504A128B8118202201A8FEF74EFE97
:101570004C48008B20304B4908830846408B20386C
:101580004883042001F0FCFB9DF81C00E82827D1CB
:101590009DF82000E92823D1032107A801F0E2FBF0
:1015A0009DF81F1088421BD1032108A801F0DAFB27
:1015B0009DF82310884213D19DF81D0000069DF868
:1015C0001E1000EB01409DF8211000EB01209DF85A
:1015D000221008443449C8600846C068334908608E
:1015E0009DF81000E42814D1032104A801F0BAFBEF
:1015F0009DF8131088420CD19DF812009DF811102F
:1016000000EB01202849C8800846C08800B228495C
:1016100008809DF80C00E22823D1032103A801F0E3
:10162000A1FB9DF80F1088421BD19DF80E009DF87C
:101630000D1000EB01201C4988800846808840F28C
:10164000DC51884207DD1648007840F0020014495A
:10165000087006E01AE01248007820F002001049F5
:1016600008709DF8040080280BD1032101A801F027
:1016700079FB9DF80710884203D19DF806000A49BE
:1016800008700948808800B20949088011B000BD7F
:10169000A81A0020C00100203C00002044000020C7
:1016A00038000020D0220020D0010020400000207F
:1016B0004600002010B504221549032001F06EFBFE
:1016C00004221349104601F069FB642002F0ECF992
:1016D00004221049032001F061FB04220D49104649
:1016E00001F05CFB642002F0DFF904220A490320C8
:1016F00001F054FB04220849104601F04FFB64201E
:1017000002F0D2F901F06AFD01F0B8FF10BD00004F
:10171000510000206100002065000020704708B5DE
:101720001D208DF8000000208DF801008DF80200CA
:1017300001208DF80300684600F010F81E208DF897
:10174000000000208DF801008DF8020001208DF8C6
:101750000300684600F002F808BD000070B50021E3
:1017600000230F22C47804B3154C246804F4E06409
:10177000C4F5E064210AC1F10403CA40447804FAC4
:1017800003F184781440214309010E4C0678A155D9
:10179000047804F01F050124AC4005786D11AD00FC
:1017A00005F1E025C5F8004109E0047804F01F05C3
:1017B0000124AC40044D0678761145F8264070BDF2
:1017C0000CED00E000E400E080E100E002490143AC
:1017D000024A1160704700000000FA050CED00E0BD
:1017E00029B1064AD2690243044BDA6104E0034A94
:1017F000D2698243014BDA61704700000010024059
:1018000029B1064A92690243044B9A6104E0034AF3
:1018100092698243014B9A617047000000100240B8
:1018200010B501210220FFF7DBFF01210420FFF7A3
:10183000D7FF01211D20FFF7E3FF10BD30B50021C8
:101840000022002400232D4D6D6805F00C0121B10C
:10185000042905D0082923D105E0294D056022E09F
:10186000274D05601FE0254D6D6805F47012234D6E
:101870006D6805F48034022505EB92421CB9214DB8
:10188000554305600BE01D4D6D6805F400351DB135
:101890001C4D5543056002E0194D5543056002E0BB
:1018A000174D056000BF00BF144D6D6805F0F001D5
:1018B0000909154D6B5C0568DD4045600F4D6D688D
:1018C00005F4E061090A104D6B5C4568DD408560F8
:1018D0000A4D6D6805F46051C90A0B4D6B5C456893
:1018E000DD40C560054D6D6805F44041890B074D2D
:1018F0006B5CC568B5FBF3F5056130BD00100240B7
:1019000000127A0000093D00AA000020BA00002061
:1019100030B587B000240020069005900390049015
:1019200001900290AA20F84948705521F64881702C
:101930000121017114214171F44800880690F44896
:101940000188ADF8141080788DF81600F148016810
:10195000039140680490F04801F0CCFBEE48016828
:10196000019140680290E8484079401DC4B20021CE
:10197000E5480172417241758172C1740175E74891
:101980000178E148C172E5480088010ADE48017328
:10199000E2480068010CDC484173E0480068010E31
:1019A000D9488173DE480178D748C173DC48008884
:1019B000010AD5480174DA480068010CD248417424
:1019C000D7480068010ED0488174D6480178CE48C7
:1019D0008171D44800880112CB48C171D248017886
:1019E000C94881759DF81810C1759DF819100176C8
:1019F00001F09CFB0146C448417603222046611C4D
:101A0000CCB2C149491C0A542046611CCCB2BE4923
:101A1000491C0A54002008E005A90B5C2146621C01
:101A2000D4B2B94A521C5354401C0328F4DB04229C
:101A30002046611CCCB2B449491C0A540C222046F1
:101A4000611CCCB2B049491C0A54B84802782046FF
:101A5000611CCCB2AC49491C0A54B4480088C0F39C
:101A600007222046611CCCB2A749491C0A54AF4842
:101A700082782046611CCCB2A349491C0A54AB4869
:101A80004088C0F307222046611CCCB29E49491C05
:101A90000A54A64802792146601CC4B29A48401CE8
:101AA0004254A2488088C0F307222046611CCCB271
:101AB0009549491C0A549D4882792146601CC4B24C
:101AC0009148401C42549948C088C0F307222046E0
:101AD000611CCCB28C49491C0A549448027A2046B5
:101AE000611CCCB28849491C0A5490480089C0F353
:101AF00007222146601CC4B28348401C42548B48D4
:101B0000827A2046611CCCB27F49491C0A5487481E
:101B10004089C0F307222046611CCCB27A49491C97
:101B20000A5409222046611CCCB27749491C0A5448
:101B300008222046611CCCB27349491C0A5400207B
:101B400008E003A90B5C2146621CD4B26E4A521C09
:101B50005354401C0828F4DB06222046611CCCB2FA
:101B60006949491C0A5408222046611CCCB26649C6
:101B7000491C0A54002008E001A90B5C2146621CA4
:101B8000D4B2614A521C5354401C0828F4DB684804
:101B9000007800F0010000284DD011222046611C81
:101BA000CCB25949491C0A5408222046611CCCB2C7
:101BB0005549491C0A545F48C2782046611CCCB282
:101BC0005149491C0A545B4882782046611CCCB2BA
:101BD0004D49491C0A54574842782046611CCCB2F2
:101BE0004949491C0A54534802782046611CCCB22A
:101BF0004549491C0A545048C2782046611CCCB261
:101C00004149491C0A544C4882782046611CCCB298
:101C10003D49491C0A54484842782046611CCCB2D0
:101C20003949491C0A54444802782046611CCCB208
:101C30003549491C0A543E48007800F0020000284B
:101C40004DD012222046611CCCB22F49491C0A54A7
:101C500008222046611CCCB22B49491C0A54374843
:101C6000C2782046611CCCB22749491C0A5433482B
:101C700082782146601CC4B22348401C42542F483D
:101C800042782046611CCCB21F49491C0A542B489B
:101C900002782046611CCCB21B49491C0A542848D2
:101CA000C2782046611CCCB21749491C0A5424480A
:101CB00082782046611CCCB21349491C0A54204842
:101CC00042782046611CCCB20F49491C0A541C487A
:101CD00002782046611CCCB20B49491C0A541448B6
:101CE000007800F0080068B313222146601CC4B2DB
:101CF0000548401C425418222046611CCCB20249BF
:101D0000491C0A54002026E03C0100201700002056
:101D1000190000201C000020240000203C000020AE
:101D2000400000201400002016000020A001002028
:101D3000790000207A000020820000207E00002030
:101D40008600002015E025490B5C2146621CD4B2B8
:101D5000234A5354401C0C28F5DB002007E021499E
:101D60000B5C2146621CD4B21D4A5354401C0C2803
:101D7000F5DB1B48401E04700078C01EC1B2184835
:101D8000401EC17000210278401C815402200CE0EA
:101D90001349491E0A78491C8A5C095C5140104A63
:101DA000521E1378521CD154401C0D49491E09780B
:101DB0008142EDD8002505E00948415D0AA000F008
:101DC0002BFD6D1C0648401E0078A842F4D207483F
:101DD000008828300549088007B030BDE0010020A8
:101DE0003D010020EC0100202563000014000020CC
:101DF00010B500F001F810BD0CB500200190009066
:101E00003348006840F480303149086000BF3048F2
:101E1000006800F4003000900198401C0190009888
:101E200018B90198B0F5A06FF1D12948006800F405
:101E3000003010B10120009001E0002000900098D7
:101E4000012843D12348006840F010002149086070
:101E50000846006820F0030008600846006840F06B
:101E6000020008601A4840681949486008464068FE
:101E700048600846406840F4806048600846406812
:101E800020F47C1048600846406840F4E810486040
:101E90000846006840F08070086000BF0C48006889
:101EA00000F000700028F9D00948406820F00300D5
:101EB000074948600846406840F00200486000BF9B
:101EC0000348406800F00C000828F9D10CBD000060
:101ED000001002400020024010B5FEF777F902F032
:101EE0002DF818B14FF08050024908600020FEF72D
:101EF00074F910BD04ED00E010B51348006840F01F
:101F000001001149086008464068104908400E4920
:101F10004860084600680E4908400B4908600846BA
:101F2000006820F4802008600846406820F4FE0025
:101F300048604FF41F008860FFF75AFF4FF00060C1
:101F40000449086010BD0000001002400000FFF8C6
:101F5000FFFFF6FE08ED00E010B5184800681849CC
:101F6000B0FBF1F0401E174908804FF6FF7016498C
:101F700088801448008808800020C8804880134862
:101F800000F052F9302012490880012048801148A1
:101F90000088C880022008810C4800F0E9F8002180
:101FA0000A4800F035F90021084800F0B8F801228D
:101FB0000821064800F0D3F810BD0000C000002042
:101FC000400D030094000020140200200004004093
:101FD0001E0200208C00002010B508210D4800F0E2
:101FE000ADF8B0B108210B4800F096F8094800F0B0
:101FF000A2F80949088008460088084A1288104457
:1020000081B2044800F00DF905480068401C0449FD
:10201000086010BD0004004096000020A0000020D1
:102020009800002010B5184800681849B0FBF1F07E
:10203000401E174908804FF6FF70164988801448E3
:10204000008808800020C8804880134800F0ECF821
:102050003020124908800120488011480088C8803B
:10206000022008810C4800F083F800210A4800F0A3
:10207000CFF80021084800F052F801220821064854
:1020800000F06DF810BD0000C0000020400D0300FE
:102090009400002014020020000800401E020020CE
:1020A0008C00002010B508210D4800F047F8B0B1B1
:1020B00008210B4800F030F8094800F03CF80949C5
:1020C000088008460088084A1288104481B20448F3
:1020D00000F0A7F805480068401C0449086010BDDE
:1020E0000008004096000020A20000209C00002074
:1020F00010B50121064800F021F840B105480068FC
:10210000401C044908600121014800F005F810BD99
:102110000010004010000020CA430282704721B125
:10212000028842F00102028004E002884FF6FE734A
:102130001A40028070470146888F704730B50246CA
:10214000002000230024158A05EA0103958905EA89
:10215000010413B10CB1012000E0002030BD1AB120
:1021600083890B43838102E083898B43838170479A
:1021700070B5002400220023058C4FF6FF66354021
:102180000584028C8388848B4FF68F752C404FF624
:10219000FC752C400D882C434FF6FF552A400D89C5
:1021A0004FF6FF7606EA05252A434D8806EA0525FF
:1021B0002A43154DA84202D0144DA8421DD14FF21A
:1021C000FF752A404D894FF6FF7606EA05252A431A
:1021D0004FF6FF352A408D8806EA05252A434EF63C
:1021E000FF752B404DF6FF752B408D8906EA0515CE
:1021F0002B43CD8906EA05152B4383808483CD8844
:102200008587028470BD0000002C0140003401402D
:102210000A460021818B4FF6F773194011438183E1
:102220007047818770470000002202881D4B98424A
:102230000ED01D4B98420BD0B0F1804F08D01B4BF5
:10224000984205D01A4B984202D01A4B984204D1BA
:102250004FF68F731A404B881A43174B984207D09A
:10226000164B984204D04FF6FF431A40CB881A43CE
:1022700002808B8883850B8803850A4B98420BD09C
:10228000094B984208D00E4B984205D00D4B98420E
:1022900002D00D4B984201D10B7A03860123838231
:1022A00070470000002C0140003401400004004051
:1022B00000080040000C00400010004000140040E6
:1022C00000400140004401400048014010B5024870
:1022D00000F0FEF810BD0000A81A002010B502485A
:1022E00000F0F6F810BD0000D022002010B5024822
:1022F00000F0EEF810BD00003002002010B50248DA
:1023000000F0E6F810BD0000580A002010B50248A1
:1023100000F0DEF810BD00008012002001F4007211
:10232000B2F5007F00D100BFCA430280704721B1DF
:10233000828942F40052828104E082894DF6FF7363
:102340001A408281704770B50246002400230025A0
:10235000002040F66A16B14200D100BFC1F3421519
:1023600001F01F03012606FA03F3012D02D196891D
:10237000334006E0022D02D1168A334001E0968AEE
:1023800033400C12012606FA04F41688344013B1C7
:102390000CB1012000E0002070BDF0B50346002420
:1023A00000260025002040F66A17B94200D100BF80
:1023B0001846C1F3421401F01F06012707FA06F57B
:1023C000012C01D10C3004E0022C01D1103000E0CE
:1023D00014301AB107682F43076002E00768AF4363
:1023E0000760F0BD2DE9F04786B005460E46002493
:1023F000A24600BFA1460027B08900B100BF2F460A
:102400002C8A4CF6FF700440F08804432C82AC897F
:102410004EF6F3100440B0883189084371890843AF
:102420000443AC81AC8A4FF6FF400440B0890443BA
:10243000AC8201A8FFF702FA1F48874202D1DDF8FB
:1024400010A001E0DDF80CA0A88900F4004040B124
:102450000AEBCA0000EB0A1031684900B0FBF1F842
:1024600007E00AEBCA0000EB0A1031688900B0FBF4
:10247000F1F86420B8FBF0F004012009642101FBAD
:102480001089A88900F4004040B1322000EBC90057
:10249000B0FBF1F000F00700044308E0322000EB4D
:1024A00009106421B0FBF1F000F00F0004432C810F
:1024B00006B0BDE8F087000000380140014688887A
:1024C000C0F308007047C1F3080282807047000023
:1024D00070B5044600BF40F225512068FFF733FF76
:1024E000E0B12068FFF7EAFFC5B2E18AA068455471
:1024F000E08A401C80B2E082E189884201DB002052
:10250000E082608BE189884202DA608B401C608344
:10251000606A10B12846616A88471FE040F2244192
:102520003548FFF710FF48B133480088C6B232483B
:10253000001D0088C6B201203049087040F22441D5
:102540002F48FFF700FF48B12D480088C6B22C483D
:10255000001D0088C6B201202A49087040F2277188
:102560002068FFF7F0FE08B3A08A60B9002240F2AD
:1025700027712068FFF711FF012240F226612068D1
:10258000FFF70BFF37E0638A6268D15C2068FFF7D2
:102590009AFF608A401C80B26082A189884201DB78
:1025A00000206082A08A401EA08224E040F22661C2
:1025B0002068FFF7C8FEF0B1A08A50B9002240F2AF
:1025C00026612068FFF7E9FE206AA0B1206A8047F3
:1025D00011E0638A6268D15C2068FFF774FF608A4B
:1025E000401C80B26082A189884201DB00206082A9
:1025F000A08A401EA08270BD00380140A8000020C3
:1026000000440040A9000020F8B504460E461746D5
:10261000002525E00CE001F0B5F9A08A009001F05A
:10262000D3F9A089BDF80010884200DD01E000BFA9
:10263000F1E700BF705D228A6168885401F0A2F959
:10264000208A401C80B22082A189884201DB0020C0
:102650002082A08A401CA08201F0B6F9681C85B2D5
:10266000BD42D7DB012240F227712068FFF795FEBB
:10267000F8BD0000344835490860354848603548A1
:1026800088604FF480608881C88100200882488279
:10269000C882088348838882C861086248622E48DD
:1026A0002E4908602E4848602E4888604FF48060AC
:1026B0008881C881002008824882C88208834883B4
:1026C0008882C8610862486227482849086028480B
:1026D0004860284888604FF480608881C881002065
:1026E00008824882C882088348838882C861086259
:1026F0004862214821490860214848602148886093
:102700004FF480608881C881002008824882C88296
:10271000088348838882C861086248621A481B4956
:1027200008601B4848601B4888604FF480608881BF
:10273000C881002008824882C88208834883888232
:10274000C8610862486270470038014030020020CA
:10275000580200205806002000440040580A00207B
:10276000800A0020800E00200048004080120020D7
:10277000A8120020A8160020004C0040A81A002033
:10278000D01A0020D01E002000500040D02200208F
:10279000F8220020F826002000BFFEE700B585B033
:1027A0000E48B0F900000E49B1F900100D4AB2F917
:1027B00000200D4BB3F90030CDE90132CDE9031013
:1027C0000A48006800900A4803680A4802680A48F4
:1027D00001680AA000F020F805B000BD4600002006
:1027E000440000204A000020480000204000002053
:1027F0003C0000209C0000209800002025642C252F
:10280000642C25642C25642C25642C25642C2564DB
:102810002C25640D0A0000000FB4054B10B503A968
:10282000044A029800F018F810BC5DF814FB000090
:10283000C53000083801002002E008C8121F08C196
:10284000002AFAD170477047002001E001C1121F31
:10285000002AFBD1704700002DE9FF4F8BB09A464C
:102860000F460546002606E025280BD052460D9956
:1028700090476D1C761C28780028F5D10FB03046A3
:10288000BDE8F08F0024A0460122604900E0044327
:1028900015F8013F203B02FA03F00842F7D12878EF
:1028A0002E2817D115F8010F44F004042A280ED061
:1028B0006FF02F022878A0F1300109290AD808EB1F
:1028C000880102EB410100EB01086D1CF2E757F8AB
:1028D000048B6D1C287869283ED006DC0028CDD0FA
:1028E00063280BD0642804D136E0732810D07528F3
:1028F0004BD052460D999047761C85E017F8040B93
:102900008DF8000000208DF80100E946012003E069
:1029100057F8049B4FF0FF3061074FF0000401D4DB
:102920000AE0641C44450DDA8442FADB19F804100D
:102930000029F6D106E0641C8442FCDB19F804107F
:102940000029F8D1264404E019F8010B52460D99EC
:102950009047641EF8D257E001CF4FF00A0B0028D1
:1029600002DA40422D2102E0210504D52B218DF809
:102970002410012103E0E10705D02021F7E70DF144
:10298000200908910CE00021F9E701CF4FF00A0B74
:10299000F9E75946FDF775FE01F1300209F8012DFE
:1029A0000028F6D1ADEB090000F1200B600701D43F
:1029B0004FF00108D84502DDA8EB0B0000E0002035
:1029C0008046002406E009A85246005D0D99904714
:1029D000641C761C08988442F5DB04E030205246E3
:1029E0000D999047761CB8F10001A8F10108F5DCBB
:1029F00005E019F8010B52460D999047761CBBF182
:102A00000001ABF1010BF4DC6D1C34E70928010077
:102A10002DE9F04FA7B04FF0190B00270024002537
:102A2000002026902590239024902190229000262B
:102A300082468046DFF8E4917948007800286FD01C
:102A4000002077490870774880687649098B405C98
:102A5000AA2872D173488168008B401C085C5528F5
:102A6000F7D170488168008B801C0E5C00BF022586
:102A700008E06C4880686B49098B2944405C4740FA
:102A8000681CC5B2F01C8542F3DB66488168008B88
:102A90003044C01C085CB842DBD162488068614A9F
:102AA000128B1044C11C324601A8FDF7AFFB002475
:102AB00098E02046611CCCB201A911F800A0204684
:102AC000611CCCB201A911F80080BAF1060F37D011
:102AD0000CDCBAF1010F16D0BAF1030F21D0BAF114
:102AE000040F2BD0BAF1050F77D128E0BAF1090F06
:102AF00032D0BAF1110F3BD0BAF1120F4CD0BAF16B
:102B0000130F6AD15CE09DF81600474908709DF8E4
:102B100017008DF898009DF818008DF899005DE079
:102B200079E0002506E0601901A9085C25A948554F
:102B3000681CC5B2032DF6DB50E069E04EE04DE0C5
:102B4000002506E0601901A9085C21A94855681C08
:102B5000C5B24545F6DB41E0002506E0601901A954
:102B6000085C23A94855681CC5B2082DF6DB35E082
:102B700001A8005D2D49C87001A9601C085C2B49A3
:102B8000887001A9A01C085C2849487001A9E01CB4
:102B9000085C2649087021E001A8005D2449C8703E
:102BA00001A9601C085C2249887001A9A01C085C6E
:102BB0001F49487001A9E01C085C1D4908700DE020
:102BC000002506E0601901A9085C09F8010B681CE2
:102BD000C5B20C2DF6DB01E0FFE700BF00BF04EB40
:102BE0000800C4B2B442FFF664AF1248BDF89810B2
:102BF00001801148BDF8941001809DF896108170F5
:102C00000E4823990160249941600D482199416043
:102C1000012000F0B5F827B0BDE8F08FEC010020EE
:102C2000A9000020580A0020160000208200002081
:102C30008600002017000020190000201C00002042
:102C40002400002010B54FF44070FEF7BFFD00F0E7
:102C50003FF800F007F8FDF7A5FF00F0F3FC00F0E7
:102C600073FA10BD08B501210420FEF7C9FD01204B
:102C700000F036F8022000F033F8032000F030F8BE
:102C8000042000F02DF803208DF8020010208DF8AC
:102C900003000220ADF8000069460C48FDF7F2FE83
:102CA0000220ADF8000069460848FDF7EBFE02205F
:102CB000ADF8000069460548FDF7E4FE0220ADF8D6
:102CC000000069460148FDF7DDFE08BD000801402F
:102CD00010B5FFF7CFFCFEF7EFF8FDF765FE10BD6E
:102CE000411EC8B218B902210A4A116010E0012839
:102CF00003D10221074A11600AE0022803D1022110
:102D0000044A116004E0032802D10221014A116043
:102D10007047000010080140012806D110490968D9
:102D200081F002010E4A116019E0022806D10C4917
:102D3000096881F002010A4A116010E0032806D1F7
:102D40000749096881F00201054A116007E004287B
:102D500005D10349096881F00201014A11607047F9
:102D60000C08014010B502460023002004E0145C6A
:102D70001C44E3B2441CE0B28842F8DB184610BDA4
:102D800000B503461846FDF7EFFD024602B900BD47
:102D90000020D0821083508300BFF8E72DE9F04176
:102DA00005460E4617462846FDF7DEFD04460CB9DB
:102DB000BDE8F081E06908B1E06980473A463146F4
:102DC0002046FFF721FC00BFF2E713B504460122BD
:102DD00001A92046FFF7E2FF1CBDC10000BF0A00A9
:102DE000A1F10101FBD170472DE9F04F87B0814679
:102DF0000C4644B9B9F1000F05D10020A54908805F
:102E0000A5490880F4E0ECB9B9F1000F1AD04846A2
:102E1000FDF7C9FB0646A149FDF774FA0546FDF723
:102E2000DCFB00B29B4908804846FDF7BCFB064628
:102E30009A49FDF767FA0546FDF7CFFB00B29649C0
:102E40000880D5E0002C45D0B9F1000F42D12046D2
:102E5000FDF7B2FB07460022914BFDF7C3FA0022B3
:102E6000904BCDE90001FDF72FFB00228E4BCDE901
:102E70000201FDF7B7FA4FF080428C4BCDE9040117
:102E8000FDF7B0FA0546FDF7C1FB00B282490880A4
:102E90006042FDF791FB0022814BCDE90001FDF777
:102EA000A1FA00227F4BCDE90201FDF70DFB0022C4
:102EB0007D4BCDE90401FDF795FA07464FF08042BE
:102EC0007A4BFDF78FFA0546FDF7A0FB00B271497A
:102ED00008808DE02046FDF76FFB0022704BCDE9A6
:102EE0000201FDF77FFA05460E464846FDF764FBF2
:102EF00000226B4BCDE90201FDF774FA2A463346F6
:102F0000CDE90401FDF7E0FA0746FDF79EFB824696
:102F100051466748FDF7F6F98346002C34DD6549D4
:102F20005846FDF797F905904846FDF73CFB80466B
:102F30005A49FDF7E7F907460599FDF7E3F9064613
:102F40005946FDF711FA0546FDF747FB00B2524915
:102F5000088058495846FDF7CFF905904846FDF7D7
:102F600022FB80464D49FDF7CDF907460599FDF74F
:102F7000C9F906465946FDF7F7F90546FDF72DFB59
:102F800000B24449088033E04A495846FDF7B4F995
:102F900005904846FDF707FB80464049FDF7B2F92A
:102FA00007460599FDF7AEF906465946FDF7DCF9E7
:102FB0000546FDF712FB00B2364908803D495846E8
:102FC000FDF748F905904846FDF7EDFA804633498C
:102FD000FDF798F907460599FDF794F90646594615
:102FE000FDF7C2F90546FDF7F8FA00B22A49088054
:102FF0002848B0F90000012101EBE0702E4908706B
:103000002548B0F90000C00F2C49087021480088FD
:10301000C8B921480088B0B92948007D082806D0E1
:103020000020FEF7DFF900210846FEF7C5F9244825
:10303000407D08282BD00120FEF7D4F90021012083
:10304000FEF7BAF923E01349B1F90050002D01DB76
:10305000294600E0694208B200F0E4FB0646324629
:10306000154801780020FEF743F90B49B1F90050EB
:10307000002D01DB294600E0694208B200F0D2FBD6
:10308000064632460D4801780120FEF731F907B0B7
:10309000BDE8F08F480000204A000020FAD18F3FA1
:1030A0000000F03F00408F40006065403FFAF13F74
:1030B00000007A4400002B434C0000204D0000200B
:1030C000F801002070B504460D46E1B20020FFF77C
:1030D0007CFE204670BD000010B503220449104656
:1030E000FFF75CFE032202490420FFF757FE10BDE4
:1030F000750000200146002000BF05E0094A125C6F
:1031000001F8012B421CD0B20228F7DB002005E0B9
:10311000054A125C01F8012B421CD0B20228F7DBF1
:1031200070470000C4010020D4010020014800784D
:103130007047000038000020FFF784FDFDF7A8FB72
:1031400000F058FD00BFFEE708B501217C20FEF726
:1031500057FB4020ADF8000010208DF8030003203D
:103160008DF8020069461B48FDF78CFC8020ADF805
:10317000000069461748FDF785FC4020ADF80000C7
:1031800010208DF8030003208DF8020069461248D4
:10319000FDF778FC8020ADF8000069460E48FDF789
:1031A00071FC40210B48FDF7F8FC80210948FDF730
:1031B000F4FC40210848FDF7F0FC80210648FDF7AB
:1031C000ECFC01210020FEF7CBF800210120FEF7E6
:1031D000C7F808BD00080140000C01404FF4FA6038
:1031E0000649088000204880012088804FF47A60DA
:1031F0000349088000204880888070472C00002008
:103200003200002010B504460E48006844600E48A5
:103210000068844207D20B480168091D0B4800680A
:1032200000F08AFB0CE007480168091D08480068A7
:1032300000F082FB07480068844201D20548046020
:1032400010BD0000D4000020E8000020DC000020B9
:10325000D8000020040100202DE9F04105460F466A
:103260001FB9A80000F064F900E03846064656B1E0
:10327000582000F05DF904460CB1266304E03046A6
:1032800000F0B8FB00E0002424B1A900A522206BC7
:10329000FCF7CEFF2046BDE8F081000070B523E0CA
:1032A00000F0DCFC1348006808B9012000E00020B1
:1032B000054600F0E1FEBDB900F064FB0D48C068B2
:1032C000C468201D00F014FB0B480068401E0A492A
:1032D00008600A480068401E0849086000F074FB56
:1032E000204600F00DF800BF044800680028D7D140
:1032F00070BD0000982B0020E4000020E0000020BA
:1033000010B50446206B00F075FB204600F072FB00
:1033100010BD000030B54FF48843174800F0070493
:103320002CB1C01D20F00700134C041B1B1B0246D0
:10333000124C22600024114D6C60D018083820F027
:1033400007000F4C206000240D4D2D686C600C4D63
:103350002D682C601146441A4C60094C24680C609E
:10336000084D4C682C60084D4C682C604FF00044B0
:10337000064D2C6030BD0000C02B00202001002035
:1033800028010020300100202C0100203401002001
:1033900000BFFFF783FF034800680128F9D900F058
:1033A0006FFBF6E7F82A00202DE9F04704460F46A8
:1033B00016469946DDF82080002507E0795D04F186
:1033C00034004155785D00B902E06D1C102DF5D335
:1033D00000BF002143200155052E00D30426E662DC
:1033E000201D00F0A6FA04F1180000F0A2FA2461F2
:1033F000C6F10500A06164620020E064206584F8E5
:103400005400BDE8F087000010B5002407E004EB8D
:1034100084010F4A02EB810000F07EFA641C052C47
:10342000F5D30C4800F078FA0B4800F075FA0B4819
:1034300000F072FA0A4800F06FFA0A4800F06CFADD
:1034400004480949086004480849086010BD0000A4
:10345000F82A00205C2B0020702B0020842B0020F9
:10346000982B0020AC2B0020D8000020DC0000208E
:1034700010B50146164800E0006803688B42FBD394
:103480000246436813448B4204D143684C6823448A
:10349000436001460A464B6813440468A34211D1B5
:1034A0000C4C03682468A34208D04B680468646825
:1034B00023444B6003681B680B6005E0054B1B68E9
:1034C0000B6001E003680B60884200D0016010BD12
:1034D00020010020280100200A490968096809B96B
:1034E000012100E0002121B14FF0FF31064A1160B7
:1034F00006E004490968C968C868034A4168116060
:1035000070470000D8000020040100200748006830
:10351000401C08B9012000E0002018B9FCF756FE55
:1035200000BFFEE7FCF752FE00BFFEE714010020DB
:103530002DE9F04104464FF0000800F08FFB3C48B5
:10354000006808B9FFF7E6FE3A4800682040002806
:103550005DD19CB1083404F0070078B104F0070095
:10356000C0F10800044404F0070008B9012000E09D
:10357000002018B9FCF72AFE00BFFEE7002C46D059
:103580002D480068844242D82C4E3046056801E040
:103590002E462D686868A04202D228680028F7D11C
:1035A00023480068854232D0306800F10808286856
:1035B00030606868001B102812D92F1907F0070027
:1035C00008B9012000E0002018B9FCF7FFFD00BF9A
:1035D000FEE76868001B78606C603846FFF748FFBC
:1035E000154968680968081A1349086008460068A0
:1035F00013490968884203D20F48006810490860DF
:103600000C4968680968084368600020286000F079
:1036100033FD08F0070008B9012000E0002018B9C8
:10362000FCF7D4FD00BFFEE74046BDE8F081000096
:1036300028010020340100202C010020200100205E
:103640003001002010B5FEF7EBF8FEF768F8FDF743
:10365000F9F9FEF781FCFEF7E5FC10BD001F4FF005
:1036600080730360001F0160001F034B0360143868
:1036700002602038704700000D35000808B51A2098
:103680008DF800005B480088000A8DF80100594859
:1036900000788DF8020003216846FFF763FB8DF880
:1036A0000300042269460320FFF778FB04226946E1
:1036B0001046FFF773FB642000F0F6F91B208DF82D
:1036C00000004C484088000A8DF801004948807885
:1036D0008DF8020003216846FFF744FB8DF80300D4
:1036E000042269460320FFF759FB0422694610466D
:1036F000FFF754FB642000F0D7F91C208DF8000080
:103700003C488088000A8DF801003A4800798DF81D
:10371000020003216846FFF725FB8DF80300042211
:1037200069460320FFF73AFB042269461046FFF77B
:1037300035FB642000F0B8F940208DF800002E48D9
:103740000088000A8DF801002B4800788DF80200EF
:1037500003216846FFF706FB8DF803000422694643
:103760000320FFF71BFB042269461046FFF716FBF8
:10377000642000F099F941208DF800001E4840882F
:10378000000A8DF801001C4880788DF802000321A2
:103790006846FFF7E7FA8DF8030004226946032024
:1037A000FFF7FCFA042269461046FFF7F7FA642097
:1037B00000F07AF942208DF800000F488088000A56
:1037C0008DF801000C4800798DF80200032168464D
:1037D000FFF7C8FA8DF80300042269460320FFF7BB
:1037E000DDFA042269461046FFF7D8FAC82000F037
:1037F0005BF908BD2C0000203200002059B128B927
:10380000054A92FBF1F2054B1A8004E0024A92FB52
:10381000F1F2034B1A807047A0860100A00000203F
:10382000A20000200146002201B91EE0081E01DBB3
:10383000034600E04342002B06DA002901DD0020A8
:1038400000E00020024610E0081E01DB034600E015
:103850004342B3F5167F07DD002902DD4FF41670F1
:1038600000E00348024600E00A46104670470000A8
:10387000A8FDFFFF014600200A034FF4167392FBD8
:10388000F3F290B27047000010B5044644B900202E
:1038900008490880012107482438FEF740FC07E06A
:1038A000002005490880012103482438FEF737FC31
:1038B00010BD0000240400402408004010B5044658
:1038C00044B9002008490880002107482438FEF741
:1038D00026FC07E000200549088000210348243821
:1038E000FEF71DFC10BD0000240400402408004029
:1038F00001460A69D1E901309860D1E901035860B5
:103900005068884201D188685060002008611068C2
:10391000401E10601068704700F1080141604FF0D0
:10392000FF31816000F10801C16001610021016087
:10393000704700210161704710B502460B685C1C9E
:103940000CB9106907E002F1080000E04068446823
:1039500024689C42FAD944684C604C68A160886035
:1039600041600A611468641C146010BD42684A60BA
:1039700093688B60936859609160086103685B1C71
:103980000360704710B5FCF721FC0D480068401C2F
:103990000B490860BFF34F8FBFF36F8F0846006875
:1039A00001280BD107480068C0B208B9012000E027
:1039B000002018B9FCF70AFC00BFFEE710BD0000AC
:1039C0001401002004ED00E010B50948006818B9A2
:1039D000FCF7FCFB00BFFEE705480068401E0449F9
:1039E00008600846006810B90020FCF7F6FB10BD1F
:1039F0001401002070B506463546002E31D0083D32
:103A00002C46184960680968084008B1012000E0A8
:103A1000002018B9FCF7DAFB00BFFEE7206808B900
:103A2000012000E0002018B9FCF7D0FB00BFFEE742
:103A30000C4960680968084098B1206888B909494C
:103A4000606809688843606000F008F906496068AA
:103A500009680844044908602046FFF709FD00F0A2
:103A60000BFB70BD340100202C01002003484FF0F7
:103A7000E021486107200861704700003F190100FC
:103A80004FF0805003490860BFF34F8FBFF36F8F33
:103A90007047000004ED00E004E0FEF7B9FF0A20E3
:103AA00000F002F8F9E7000070B50446002634B3D0
:103AB0001548006808B9012000E0002018B9FCF79B
:103AC00085FB00BFFEE700F0C9F810480068051943
:103AD0000F480068001DFFF70BFF50B90C48006845
:103AE00090F82C10012088400A4909688143094850
:103AF00001602846FFF786FB00F0BEFA06460EB9C5
:103B0000FFF7BEFF70BD000008010020E8000020A4
:103B1000D4000020EC0000202DE9F04704460E46BA
:103B20004FF000091CB9FCF751FB00BFFEE70EB1D6
:103B3000012000E0002018B9FCF748FB00BFFEE7B9
:103B40002148006808B9012000E0002018B9FCF7FE
:103B50003DFB00BFFEE700F081F81C48D0F8008074
:103B6000206885192068404507D92068A8420BD9EC
:103B7000454509D94FF0010906E02068A84201D85F
:103B8000454501D94FF001092560B9F1000F13D067
:103B90000F480068001DFFF7ABFE50B90C480068E5
:103BA00090F82C10012088400A490968814309488F
:103BB00001602846FFF726FB00F05EFA07460FB9C2
:103BC000FFF75EFFBDE8F08708010020E800002055
:103BD000D4000020EC00002004E0FDF721F80520CF
:103BE000FFF762FFF9E704E0FDF7D8FA0520FFF7D9
:103BF0005BFFF9E71FB5002000900190029003469B
:103C000080220FA10390104800F0F6F80446012C22
:103C10000FD1FCF7DBFAA01E0C49086001200C490B
:103C2000086000200B4908600B49086000F094F818
:103C300004E01CB9FCF7CAFA00BFFEE71FBD000094
:103C400049444C4500000000913300080401002065
:103C5000F0000020E800002010000020024800686A
:103C6000401C0149086070470801002010B5274832
:103C7000006818B101202649086045E00020244969
:103C80000860244800682449086008460068234901
:103C9000096888420BD92249096801F14C00C96CB6
:103CA0001D4A12681D4B1B68D21A114401601A4844
:103CB00000681A4908601B480068B0FA80F0C0F13B
:103CC0001F0404EB8400184951F8200008B10120BA
:103CD00000E0002018B9FCF779FA00BFFEE704EB1A
:103CE0008401114A02EB810041684968416000F19A
:103CF000080142688A4202D14168496841604168CE
:103D0000C968074A116000BF10BD0000080100200B
:103D1000F800002010000020100100200C010020FD
:103D2000D4000020EC000020F82A002008B500BFD5
:103D300000F0FEF800900EE0FFF7CEF9282168466B
:103D4000FFF7EAFEFDF76AFBFEF728FDFDF7E0FD51
:103D50000120FEF7E1FFEFE71CB522480146097894
:103D60000191FF21024611700146097800919DF8EA
:103D7000001001F010011C4A117007211B4A11604C
:103D800009E01A490968491E184A11609DF8001097
:103D90004906090E00919DF8001001F0800180296C
:103DA000EFD0124909680902104A116011460988CA
:103DB00001F4E06111600B4A019911700C48006830
:103DC00040F470000A4908600846006840F07040FE
:103DD0000860FFF74BFE002006490860FCF7C4F9B5
:103DE00000201CBD00E400E0180100201C010020A0
:103DF00020ED00E0140100202DE9FF4F81B0804646
:103E000016469A46DDE90E5BB8F1000F03D1FCF7C8
:103E1000DDF900BFFEE7052D01D2012000E0002002
:103E200018B9FCF7D3F900BFFEE730461099FFF749
:103E300013FA0446002C5DD0701E216B01EB800943
:103E400029F0070909F0070008B9012000E0002067
:103E500018B9FCF7BBF900BFFEE700962A462046DA
:103E6000119B0299FFF7A0FA524641464846FFF7D8
:103E7000F5FB2060BBF1000F01D0CBF80040FFF74D
:103E800081FD25480068401C2349086023480068DC
:103E900040B9224804600846006801280CD1FFF7A9
:103EA000B3FA09E01E48006830B91C480068C06ACF
:103EB000A84201D8194804601A480068401C1949F2
:103EC000086008460068606494F82C10012088405F
:103ED00015490968084314490860E16A01EB81014A
:103EE000124A02EB8100211DFFF740FD0127FFF779
:103EF0006BFD01E04FF0FF37012F09D10848006842
:103F000030B106480068C06AA84201D2FFF7B8FD88
:103F1000384605B0BDE8F08FE4000020D400002052
:103F2000F000002000010020EC000020F82A002012
:103F30000149086870470000E80000202DE9F041C1
:103F40004FF0000841480068002872D140480068DE
:103F5000401C3F49086008460668DEB93D480068D5
:103F6000006808B9012000E0002018B9FCF72EF91C
:103F700000BFFEE7374807683748006835490860E2
:103F80003548076035480068401C34490860FFF731
:103F9000A3FA00BF3248006886423CD300BF2D48D8
:103FA0000068006808B9012000E0002020B14FF04F
:103FB000FF302B4908602DE026480068C068C468BF
:103FC0006568AE4202D22648056023E0201DFFF757
:103FD0008FFCA06A18B104F11800FFF789FC94F86F
:103FE0002C10012088401F49096808431D490860BA
:103FF000E16A01EB81011C4A02EB8100211DFFF700
:10400000B5FC1A49E06A0968C96A8842C7D34FF00B
:104010000108C4E700BF15480068C06A00EB8000D3
:10402000114951F82000012808D94FF0010805E096
:10403000FFE70F480068401C0D4908600D48006804
:1040400008B14FF001084046BDE8F08108010020AA
:10405000E8000020D8000020DC000020FC00002048
:1040600004010020EC000020F82A0020D4000020E9
:10407000F4000020F800002070B5002530480068EA
:1040800018B9FCF7A3F800BFFEE7FFF77BFC2C484C
:104090000068401E2A4908600846006800284BD185
:1040A00028480068002847D024E02748C068C46832
:1040B00004F11800FFF71CFC201DFFF719FC94F811
:1040C0002C10012088402149096808431F490860D5
:1040D000E16A01EB81011E4A02EB8100211DFFF71D
:1040E00045FC1C49E06A0968C96A884202D301207C
:1040F000194908601448006808B9012000E0002050
:104100000028D2D01548006878B10AE0FFF716FF02
:1041100010B101201049086010480068401E0F4986
:1041200008600E4800680028F0D10B48006801289C
:1041300002D10125FFF7A4FCFFF746FC284670BD1D
:1041400008010020E4000020842B0020EC00002067
:10415000F82A0020D4000020F8000020F4000020FD
:1041600080410008000000203C0100003A080008DF
:10417000D04100083C010020847600004828000857
:10418000015112022008C0C22D1388C84A134A02E6
:104190001008C4C60A141432521401530627888E1C
:1041A000060111181401018032802B01050C012D2C
:1041B0002D01020304043009060708090204060859
:1041C000ACA24A041E291A01401AAA0101240000C7
:0400000508000131BD
:00000001FF
