:020000040800F2
:10000000E0770020E901000855170008C90B000837
:10001000D1110008650900086128000800000000EF
:100020000000000000000000000000004501000882
:10003000430A00080000000089010008A91E00080A
:10004000030200080302000803020008030200087C
:10005000030200080302000803020008030200086C
:10006000030200080302000803020008030200085C
:10007000030200080302000803020008030200084C
:10008000030200080302000803020008030200083C
:10009000030200080302000803020008030200082C
:1000A000030200080302000803020008030200081C
:1000B00003020008A91F00087520000803020008B9
:1000C00003020008030200080302000803020008FC
:1000D0000302000875230008852300089523000803
:1000E00003020008030200080302000803020008DC
:1000F00003020008030200080302000803020008CC
:10010000030200080302000835210008030200086A
:1001100055230008652300085D210008030200083C
:10012000030200080302000803020008030200089B
:10013000DFF80CD000F060FB00480047AD3100084C
:10014000E0770020204B19680868B0E8F00F80F3D2
:100150000988BFF36F8F4FF0000080F311884EF0D5
:100160000D0E70470000000006480068006880F32C
:10017000088862B661B6BFF34F8FBFF36F8F00DFA1
:1001800000BF00BF08ED00E0EFF30980BFF36F8F01
:100190000D4B1A6820E9F00F106008B54FF0100001
:1001A00080F3118803F0D4FE4FF0000080F3118833
:1001B000BDE8084019680868B0E8F00F80F30988C6
:1001C000BFF36F8F704700BFF0000020EFF3118086
:1001D0004FF0100181F31188704780F31188704748
:1001E000EFF3058070470000064880470648004747
:1001F000FEE7FEE7FEE7FEE7FEE7FEE7FEE7FEE7D7
:10020000FEE7FEE7C91E00083101000840EA0103CD
:100210009B0703D009E008C9121F08C0042AFAD2BC
:1002200003E011F8013B00F8013B521EF9D2704780
:10023000D2B201E000F8012B491EFBD27047002228
:10024000F6E710B513460A4604461946FFF7F0FFD5
:10025000204610BDF0B480EA0102D40F4200B2EB98
:10026000410F02D20246084611464A0042D0C30D51
:10027000DDB2C1F3C752AD1A202D35DAC1F3160134
:1002800041F4000204B15242C5F1200602FA06F11F
:100290002A411044B3EBD05F23D0C4B1012DA0EBB1
:1002A000C35009DCF0BC4FF0004202EAC352DBB29B
:1002B00000F5000000F014BA400000F1807000EB7F
:1002C000C350A0F1807040EAD170490009E04908AC
:1002D00041EAC071A0EBC35000F50000400800EBFC
:1002E000C350F0BC00F0F3B96142012202EB4101BE
:1002F000001BF6E7F0BC704781F00041AAE780F0F0
:100300000040A7E780EA010210B502F00043400078
:1003100022D04A001FD0010E01EB1261C0F356003B
:10032000C2F3560240F4000042F40002A0FB022097
:1003300000047F39140400D0401C50EA124001D45C
:100340004000491EC2B20C0604EBD010401C40080D
:10035000802A02D003E0002010BD20F00100002917
:1003600000DA0020184310BD30B480EA010202F028
:10037000004530F0004221F0004013D090B1C30D91
:10038000D40DC2F31601C0F31600E41A41F40001C3
:1003900040F400027D34914201D3641C00E0490026
:1003A000002C02DA30BC002070474FF4000000231C
:1003B000914201D3891A034340084FEA4101F7D122
:1003C00051B1914202D14FF0004105E002D24FF00D
:1003D000010101E06FF0010103EBC450284430BC7F
:1003E00000F075B92DE9FE4F81EA030404F00044E2
:1003F00021F0004100944FF0000B23F0004350EA3D
:1004000001045ED052EA03045BD0C3F30A54C1F383
:100410000A552C44A4F2F3340194A0FB0254C1F316
:10042000130141F48011C3F3130343F4801301FB60
:10043000024400FB034E840A970A44EA815447EAC7
:100440008357A4FB076802958D0A05FB07854FEAD1
:10045000932C04FB0C542705029D4FEA065847EAEB
:100460001637B5EB08056EEB070C870E920E47EAC0
:10047000811742EA8312A7FB0201B6EB0B0164EB82
:1004800000042B0D43EA0C335E1844EB1C50DA4693
:100490005146E7FB0201C5F313044FEA0B3343EA6D
:1004A00014534FEA0432019C43EA0603A4F10C04FE
:1004B0000294009CCDE900B400F04FF903B0BDE810
:1004C000F08F00200146F9E72DE9F04D81EA0304A1
:1004D00004F0004B21F0004514464FF0000A23F0D1
:1004E000004150EA050220D054EA01021DD0C5F3B4
:1004F0000A570246C5F31303C1F31300C1F30A56AA
:1005000040F4801543F48013A7EB0608101BD64671
:1005100008F2FD3873EB050002D308F1010801E091
:1005200092185B41B8F1000F03DA00200146BDE8E4
:10053000F08D00204FF48011064684460EE0171B14
:1005400073EB050705D3121B63EB050306434CEA67
:10055000010C49084FEA300092185B4150EA01074C
:10056000EDD152EA030012D082EA040083EA0501C9
:10057000084305D0101BAB4106D20122002306E040
:1005800000224FF0004302E06FF0010253101AEB1B
:1005900006004CEB085110EB0A0041EB0B01BDE8E3
:1005A000F04D00F0CBB8C10F80EAE0700844CA07F4
:1005B0009623002100F094B80EB5C10F80EAE070D8
:1005C0000844CA07002140F233438DE80E000A4672
:1005D0000B4600F0C2F803B000BD00F0004220F06E
:1005E0000040C10DC0F3160040F400007F2901DA7D
:1005F00000207047962903DCC1F19601C84001E054
:1006000096398840002AF4D04042704770B5C1F353
:100610000A5201F000450024C1F3130140F2FF33F8
:1006200041F480119A4201DA002070BD40F2334358
:100630009A42A2F2334203DC524200F038F800E062
:1006400090402C43F1D0404270BD01F0004330B4E3
:1006500021F0004150EA010206D00A0DA2F56072B5
:10066000C1F31301002A02DC30BC00207047440FA4
:1006700044EAC104C100E01830BC00EBC25000F0F5
:1006800026B830B50B46014600202022012409E09F
:1006900021FA02F59D4205D303FA02F5491B04FA3B
:1006A00002F52844151EA2F10102F1DC30BD202A1A
:1006B00004DB203A21FA02F00021704721FA02F30C
:1006C000D040C2F1200291400843194670470029EA
:1006D000A8BF7047401C490008BF20F001007047C8
:1006E00010B4B0FA80FC00FA0CF050EA010404BF28
:1006F00010BC704749B1CCF1200421FA04F411FA7E
:100700000CF118BF012121430843A3EB0C01CB1DC1
:100710004FEA00614FEA102042BF002010BC704732
:1007200000EBC35010440029A4BF10BC7047401C0C
:10073000490008BF20F0010010BC704710B5141E1E
:1007400073F1000408DA401C41F1000192185B418A
:100750001A4301D120F0010010BD2DE9F04D924661
:100760009B4611B1B1FA81F202E0B0FA80F2203278
:10077000904600F053F804460F4640EA0A0041EA6A
:100780000B0153465A46084313D0114653EA010061
:1007900019D0C8F140025046FFF789FF05460E46C2
:1007A00050465946424600F039F8084305D001202A
:1007B00004E020463946BDE8F08D0020054346EAB6
:1007C000E0762C4337430A986305E40AA0EB08005F
:1007D0000022FD0A44EA47540A3002D500200146AF
:1007E000E9E7010510196941DDE90845001969418A
:1007F000BDE8F04DA2E70000064C074D06E0E068BA
:1008000040F0010394E8070098471034AC42F6D357
:10081000FFF792FC1849000838490008202A04DB39
:10082000203A00FA02F1002070479140C2F1200303
:1008300020FA03F319439040704770B58C1810F8F4
:10084000015B15F0070301D110F8013B2A1106D115
:1008500010F8012B03E010F8016B01F8016B5B1E2F
:10086000F9D12B0705D40023521E0DD401F8013B0A
:10087000FAE710F8013BCB1A921C03E013F8015B76
:1008800001F8015B521EF9D5A142D8D3002070BDFA
:100890001FB500201B4A0123CDE9012000930390DE
:1008A00003464FF4007218A11C4803F03BFE0020E1
:1008B0001B4A0223CDE901200093039003464FF425
:1008C000007218A11C4803F02DFE00201B4A0323D0
:1008D000CDE901200093039003464FF4007218A164
:1008E0001A4803F01FFE0020194A0423CDE9012015
:1008F0000093039003464FF4007216A1184803F0CA
:1009000011FE1FBD00000020765461736B557365A6
:100910007250726F746F636F6C00000011400008BA
:1009200004000020765461736B4D6F746F72436FD7
:100930006E74726F6C000000353E000808000020E5
:10094000765461736B494D5500000000213E00084C
:100950000C000020765461736B4272696467650015
:10096000E13C000800BFFEE7014609B909487047AD
:10097000012901D10848FAE7022901D10748F6E721
:10098000032901D10648F2E7042901D10548EEE721
:100990000020ECE750020020780A0020A01200207E
:1009A000C81A0020F022002008B525208DF800008C
:1009B00001208DF8010000208DF8020001208DF843
:1009C0000300684600F0E6FE26208DF800000120B6
:1009D0008DF8010000208DF8020001208DF8030041
:1009E000684600F0D7FE27208DF8000001208DF822
:1009F000010000208DF8020001208DF803006846F8
:100A000000F0C8FE34208DF8000001208DF80100B0
:100A100000208DF8020001208DF80300684600F0E8
:100A2000B9FE35208DF8000001208DF8010000206E
:100A30008DF8020001208DF80300684600F0AAFE40
:100A400008BD704708B50120ADF8000018208DF8EA
:100A5000030003208DF802006946094800F012F8EF
:100A60004FF48070ADF8000018208DF803000320CB
:100A70008DF802006946024800F004F808BD000045
:100A8000000C01402DE9F04102460025002600201F
:100A900000230024002791F803C00CF00F0591F803
:100AA00003C00CF0100CBCF1000F03D091F802C091
:100AB0004CEA050591F800C0BCF1000F31D0146874
:100AC00000202BE04FF0010C0CFA00F3B1F800C04D
:100AD0000CEA03069E4220D183004FF00F0C0CFA63
:100AE00003F7BC4305FA03FC4CEA040491F803C085
:100AF000BCF1280F06D14FF0010C0CFA00FCC2F833
:100B000014C00AE091F803C0BCF1480F05D14FF0C2
:100B1000010C0CFA00FCC2F810C0401C0828D1D30C
:100B20001460B1F800C0BCF1FF0F34DD5468002040
:100B30002EE000F1080C4FF0010808FA0CF3B1F8B0
:100B400000C00CEA03069E4221D183004FF00F0C37
:100B50000CFA03F7BC4305FA03FC4CEA040491F8D1
:100B600003C0BCF1280F05D100F1080C08FA0CF8FD
:100B7000C2F8148091F803C0BCF1480F07D100F10E
:100B8000080C4FF0010808FA0CF8C2F81080401C5D
:100B90000828CED35460BDE8F081416170470161FF
:100BA0007047000006480068064908600448001DB8
:100BB000006848600248083000688860704700009C
:100BC000E8F7FF1F0002002009A100200CE00A5CEA
:100BD000124B1A8000BF114A121F128802F0400205
:100BE000002AF8D0421CD0B22A28F0D300BFFEE77A
:100BF0000D0A456E74657220486172644661756CB9
:100C0000745F48616E646C65722C205379737465EF
:100C10006D2048616C742E0D0A00000004380140FC
:100C20002DE9F04100235A1E1946A948006803F037
:100C300094FA00287ED000260024A648408B132872
:100C400079DBA4488068A349098B405CAA2873D14A
:100C5000A0488168008B401C085CAA28F7D19D48F9
:100C6000018BC0891338814267DB9A48C089994B50
:100C70001B8BC21A97488068964B1B8BC1189648ED
:100C8000FFF7C4FA934B1B8B1333924FFF89DA1B88
:100C9000904BDB89904F3B448E4F3F8BD81B8D4B45
:100CA0009968FFF7B3FA022505E08B48405D3044B0
:100CB000C6B2681CC5B2122DF7DB8748807CB042F3
:100CC00066D18448008B13308249C989401A814912
:100CD00008830846408B1338488303242146641C4C
:100CE0007D48425C2146641C405C42EA002000B220
:100CF0007A4908802146641C7748425C2146641C7E
:100D0000405C42EA002000B2744948802146641CDD
:100D10007148425C2146641C405C42EA002000B2FB
:100D20006E4988802046611CCCB26B490A5C204623
:100D3000611C03E0C9E0C7E0C3E03BE0CCB2664918
:100D4000085C42EA002000B26449C8802046611C69
:100D5000CCB261490A5C2046611CCCB25E49085C99
:100D600042EA002000B25D4908812046611CCCB2F5
:100D700059490A5C2046611CCCB25749085C42EADA
:100D8000002000B25549488155480068C86098E085
:100D90005048008B401C4F4908830846408B401E3A
:100DA00048830846008BC9898842F0D10020494910
:100DB000088386E047488068464A128B81181322D0
:100DC0004548FFF723FA022505E04348405D3044DB
:100DD000C6B2681CC5B2122DF7DB3F48807CB0421A
:100DE0005ED13C48008B13303A4908830846408B5B
:100DF0001338488303242146641C3748425C21464B
:100E0000641C405C42EA002000B23449088021465C
:100E1000641C3148425C2146641C405C42EA00206C
:100E200000B22E4948802146641C2B48425C214672
:100E3000641C405C42EA002000B2284988802046B9
:100E4000611CCCB224490A5C2046611CCCB2224908
:100E5000085C42EA002000B22049C8802046611C9C
:100E6000CCB21D490A5C2046611CCCB21A49085C10
:100E700042EA002000B2194908812046611CCCB228
:100E800015490A5C2046611CCCB21349085C42EA51
:100E9000002000B21149488111480068C86010E084
:100EA0000C48008B401C0B4908830846408B401EB1
:100EB00048830846008BC989884202D10020054931
:100EC0000883022001F086FF00BFBDE8F08100002A
:100ED0001C000020A0120020CC010020BC0100203A
:100EE0001800002000B585B00121052000F0B4FCF9
:100EF0000121880300F0B0FC4FF40070ADF8100041
:100F000018208DF8130003208DF8120004A9A748BB
:100F1000FFF7B8FD4FF48060ADF8100048208DF861
:100F2000130004A9A148FFF7ADFD4FF4E130009094
:100F30000020ADF80400ADF80600ADF80800ADF8EB
:100F40000C000C20ADF80A006946994801F08EFAB1
:100F5000012240F22551964801F063FA012240F245
:100F60002441934801F05DFA0121914801F023FAF0
:100F700040218F4801F016FA0121052000F06CFC99
:100F80000121480400F058FC0420ADF8100018209E
:100F90008DF8130003208DF8120004A98348FFF791
:100FA00071FD0820ADF8100048208DF8130004A949
:100FB0007E48FFF767FD04A97C48FFF763FD4FF407
:100FC000E13000900020ADF80400ADF80600ADF867
:100FD0000800ADF80C000C20ADF80A006946754811
:100FE00001F044FA012240F22551724801F019FA49
:100FF000012240F224416F4801F013FA01216D48AB
:1010000001F0D9F940216B4801F0CCF90121092008
:1010100000F022FC0121880400F00EFC4FF48060F7
:10102000ADF8100018208DF8130003208DF8120081
:1010300004A96148FFF726FD4FF40060ADF81000E9
:1010400028208DF8130004A95B48FFF71BFD04A9B5
:101050005948FFF717FD4FF4E13000900020ADF83C
:101060000400ADF80600ADF80800ADF80C000C2047
:10107000ADF80A006946514801F0F8F9012240F242
:1010800025514E4801F0CDF9012240F224414B4850
:1010900001F0C7F90121494801F08DF94021474885
:1010A00001F080F90121112000F0D6FB0121C804D4
:1010B00000F0C2FB4FF48060ADF8100018208DF8EE
:1010C000130003208DF8120004A93D48FFF7DAFC55
:1010D0004FF40060ADF8100004208DF8130004A94F
:1010E0003748FFF7CFFC4FF4614000900020ADF887
:1010F0000400ADF80600ADF80800ADF80C000C20B7
:10110000ADF80A0069462F4801F0B0F9012240F21B
:1011100025512C4801F085F901212A4801F04BF9AD
:101120004021284801F03EF90121312000F094FBD4
:101130000121080500F080FB4FF48050ADF810004D
:1011400018208DF8130003208DF8120004A91C4804
:10115000FFF798FC0420ADF810008DF8130004A9E7
:101160001948FFF78FFC4FF4614000900020ADF864
:101170000400ADF80600ADF80800ADF80C000C2036
:10118000ADF80A006946114801F070F9012240F2F9
:1011900025510E4801F045F901210C4801F00BF9E9
:1011A00040210A4801F0FEF805B000BD00080140EA
:1011B0000038014000440040000C0140004800405D
:1011C00000100140004C004000140140005000405D
:1011D00000BFFEE72DE9F04F91B04FF00008C24686
:1011E000C1460027BB4600244948007840B9012089
:1011F0004749087040F6B83002F07AFD00F076FA00
:1012000044480078002870D000204249087063E00C
:101210004148008B4149085CAA2851D13E48008BC7
:10122000401C085C55284BD13B48008B801C0C5C53
:1012300039488068384A128B8118221D01A8FEF7B0
:10124000E5FF01A9E01C0E5C0027002504E001A9D0
:10125000A81C085C47406D1CA542F8DDB7422FD1A1
:101260009DF80700012804D0092823D00E2826D194
:101270001FE09DF809009DF80A1040EA01200FFACE
:1012800080F89DF80B009DF80C1040EA01200FFA41
:1012900080FA9DF80D009DF80E1040EA01200FFA2B
:1012A00080F94946404601F0C9FD32201C490880BA
:1012B00005E004E09DF808001A49087000BF00BF6F
:1012C0001548008B401C80B213490883C9898842A5
:1012D00002DB0020104908830F48008B0E49C98AA1
:1012E000884295D1002001F075FD0D48B0F900004D
:1012F00000280ADD0A480088401E00B2084908801C
:1013000018B90021084601F099FD11B0BDE8F08F31
:101310005C000020C0000020500200207806002061
:101320005A0000208C00002070B504460E46154679
:10133000022C22DA1748005D082804D01548801EC8
:10134000005DB04219D01348005D082808D0002085
:1013500000F064F8012000F061F84B2002F0C8FCB6
:101360003146204600F018F80A2001F060FD032104
:1013700008480155204602F07DFB2946204600F032
:1013800037F835B90348005D082802D0204600F040
:1013900045F870BD2C02002070B504460D4684B996
:1013A0003DB980210F48FFF7FAFB00210E48015597
:1013B00017E080210B48FFF7F0FB01210A48015597
:1013C0000FE03DB980210948FFF7E9FB00210648FD
:1013D000015506E080210548FFF7DFFB01210248A7
:1013E000015570BD000801402A020020000C014098
:1013F00070B504460D46084820F81450801D005D65
:10140000082807D0A8B202F02BFB0646314620463A
:1014100002F0EAFA70BD00002602002010B5044672
:101420000A48005D082810D01CB901210848FFF7C0
:10143000B4FB012C03D121020548FFF7AEFB204687
:1014400002F032FB08210148015510BD2C0200209A
:10145000000C014000B591B09B48408B20287ADBFE
:1014600099488068984A128B8118202209A8FEF7B3
:10147000CDFE9548008B2030934908830846408B69
:1014800020384883032001F0A5FC9DF83C00E828A3
:1014900027D19DF84000E92823D103210FA801F0AE
:1014A0008BFC9DF83F1088421BD1032110A801F04E
:1014B00083FC9DF84310884213D19DF83D0000063F
:1014C0009DF83E1000EB01409DF8411000EB01201B
:1014D0009DF8421008447D49C8600846C0687C49B0
:1014E00008609DF83000E42814D103210CA801F015
:1014F00063FC9DF8331088420CD19DF832009DF8B2
:10150000311000EB01207149C8800846C08800B244
:10151000704908809DF82C00E22823D103210BA8F4
:1015200001F04AFC9DF82F1088421BD19DF82E0037
:101530009DF82D1000EB01206449888008468088C2
:1015400040F2DC51884207DD6348007840F001003A
:101550006149087006E01AE05F48007820F0010059
:101560005D4908709DF8240080280BD1032109A84B
:1015700001F022FC9DF82710884203D19DF8260037
:10158000524908705148808800B252490880534837
:10159000408B20287ADB51488068504A128B811892
:1015A000202201A8FEF732FE4C48008B20304B4928
:1015B00008830846408B20384883042001F00AFC49
:1015C0009DF81C00E82827D19DF82000E92823D1A8
:1015D000032107A801F0F0FB9DF81F1088421BD1E2
:1015E000032108A801F0E8FB9DF82310884213D1DD
:1015F0009DF81D0000069DF81E1000EB01409DF8AF
:10160000211000EB01209DF8221008443449C860E5
:101610000846C068334908609DF81000E42814D1DA
:10162000032104A801F0C8FB9DF8131088420CD1D7
:101630009DF812009DF8111000EB01202849C88088
:101640000846C08800B2284908809DF80C00E228AE
:1016500023D1032103A801F0AFFB9DF80F108842AE
:101660001BD19DF80E009DF80D1000EB01201C49C8
:1016700088800846808840F2DC51884207DD1648A1
:10168000007840F002001449087006E01AE01248A1
:10169000007820F00200104908709DF804008028AE
:1016A0000BD1032101A801F087FB9DF807108842A8
:1016B00003D19DF806000A4908700948808800B2E5
:1016C0000949088011B000BDC81A0020E0010020BF
:1016D000480000205000002044000020F02200209C
:1016E000F00100204C0000205200002010B5042220
:1016F0001549032001F07CFB04221349104601F038
:1017000077FB642002F0F4FA04221049032001F070
:101710006FFB04220D49104601F06AFB642002F0C1
:10172000E7FA04220A49032001F062FB0422084977
:10173000104601F05DFB642002F0DAFA01F09CFD36
:1017400002F092F810BD0000640000207400002038
:1017500078000020704708B51D208DF8000000209B
:101760008DF801008DF8020001208DF80300684615
:1017700000F010F81E208DF8000000208DF8010008
:101780008DF8020001208DF80300684600F002F891
:1017900008BD000070B5002100230F22C47804B3F7
:1017A000154C246804F4E064C4F5E064210AC1F136
:1017B0000403CA40447804FA03F1847814402143B6
:1017C00009010E4C0678A155047804F01F05012488
:1017D000AC4005786D11AD0005F1E025C5F800417C
:1017E00009E0047804F01F050124AC40044D06789C
:1017F000761145F8264070BD0CED00E000E400E0F5
:1018000080E100E002490143024A11607047000094
:101810000000FA050CED00E008B532208DF800005C
:1018200000208DF8010001208DF802008DF80300E2
:101830006846FFF7AFFF08BD29B1064AD2690243E7
:10184000044BDA6104E0034AD2698243014BDA6156
:10185000704700000010024029B1064A9269024315
:10186000044B9A6104E0034A92698243014B9A61F6
:10187000704700000010024010B501210220FFF760
:10188000DBFF01210420FFF7D7FF01211D20FFF717
:10189000E3FF10BD30B500210022002400232D4DB0
:1018A0006D6805F00C0121B1042905D0082923D168
:1018B00005E0294D056022E0274D05601FE0254D1C
:1018C0006D6805F47012234D6D6805F480340225AF
:1018D00005EB92421CB9214D554305600BE01D4DAF
:1018E0006D6805F400351DB11C4D5543056002E0DF
:1018F000194D5543056002E0174D056000BF00BF5C
:10190000144D6D6805F0F0010909154D6B5C056813
:10191000DD4045600F4D6D6805F4E061090A104D2A
:101920006B5C4568DD4085600A4D6D6805F460516B
:10193000C90A0B4D6B5C4568DD40C560054D6D689F
:1019400005F44041890B074D6B5CC568B5FBF3F5A9
:10195000056130BD0010024000127A0000093D0010
:10196000C8000020D800002030B587B00024002037
:10197000069005900390049001900290AA20F849E7
:1019800048705521F648817001210171162141717D
:10199000F44800880690F4480188ADF81410807867
:1019A0008DF81600F1480168039140680490F048F2
:1019B00001F0CAFBEE480168019140680290E848D6
:1019C0004079401DC4B2EB480068EB490860084606
:1019D0000178E3488171E8480088010AE048C17154
:1019E000E5480068010CDE480172E3480068010E1A
:1019F000DB48417200218172C172C175017341756A
:101A00008175DE480178D6484173DC480088010AB8
:101A1000D3488173D9480068010CD148C173D748B5
:101A20000068010ECE480174D5480178CC48417455
:101A3000D3480088010ACA488174D1480068010C63
:101A4000C748C174CE480068010EC5480175CD482D
:101A50000178C34801769DF8181041769DF8191059
:101A6000817601F08DFB0146BD48C17603222046F8
:101A7000611CCCB2BA49491C0A542046611CCCB244
:101A8000B749491C0A54002008E005A90B5C21460F
:101A9000621CD4B2B24A521C5354401C0328F4DBDB
:101AA00004222046611CCCB2AD49491C0A541022C4
:101AB0002046611CCCB2AA49491C0A54B24802789B
:101AC0002046611CCCB2A649491C0A54AE48008885
:101AD000C0F307222046611CCCB2A149491C0A541C
:101AE000A94882782046611CCCB29D49491C0A5401
:101AF000A5484088C0F307222046611CCCB2984913
:101B0000491C0A54A04802792046611CCCB2944971
:101B1000491C0A549C488088C0F307222046611C57
:101B2000CCB28F49491C0A54974882792046611CDF
:101B3000CCB28B49491C0A549348C088C0F3072291
:101B40002046611CCCB28649491C0A548E48027A50
:101B50002046611CCCB28249491C0A548A4800893B
:101B6000C0F307222046611CCCB27D49491C0A54AF
:101B70008548827A2046611CCCB27949491C0A54B6
:101B800081484089C0F307222046611CCCB27449C9
:101B9000491C0A547C48027B2046611CCCB2704927
:101BA000491C0A5478488089C0F307222046611CEA
:101BB000CCB26B49491C0A547348C068C0F3074251
:101BC0002146601CC4B26648401C42546E48C0683E
:101BD000000E2146621CD4B2614A521C50540922A4
:101BE0002046611CCCB25E49491C0A54082220469A
:101BF000611CCCB25A49491C0A54002008E003A9D0
:101C00000B5C2146621CD4B2554A521C5354401CF2
:101C10000828F4DB5D48007800F0010068B3112269
:101C20002046611CCCB24E49491C0A54042221466C
:101C3000601CC4B24A48401C42545548C2782046F1
:101C4000611CCCB24649491C0A545148827820464E
:101C5000611CCCB24249491C0A544D484278204686
:101C6000611CCCB23E49491C0A54494802782046BE
:101C7000611CCCB23A49491C0A544448007800F02F
:101C8000020068B312222046611CCCB23449491CC0
:101C90000A5404222046611CCCB23149491C0A5422
:101CA0003C48C2782046611CCCB22D49491C0A54DC
:101CB000384882782046611CCCB22949491C0A5414
:101CC000344842782046611CCCB22549491C0A544C
:101CD000304802782046611CCCB22149491C0A5484
:101CE0002A48007800F00800D0B113222046611C79
:101CF000CCB21B49491C0A540C222146601CC4B2B8
:101D00001748401C4254002008E023490B5C214640
:101D1000621CD4B2124A521C5354401C0C28F4DBEF
:101D20000F4804700078C01EC1B20D48C170002178
:101D30000278401C815402200CE009490A78491CB1
:101D4000895C074A521C125C5140054A1378521CA8
:101D5000D154401C024909788142EED8002523E085
:101D60005801002021000020230000202600002030
:101D70002E000020600000201400002048000020F9
:101D80004C00002020000020BC0100208C0000201E
:101D90008D00002091000020000200200648415DD7
:101DA00006A000F061FD6D1C0348401E0078A842AB
:101DB000F4D207B030BD00005901002025630000B7
:101DC00010B500F001F810BD0CB500200190009096
:101DD0003348006840F480303149086000BF304823
:101DE000006800F4003000900198401C01900098B9
:101DF00018B90198B0F5A06FF1D12948006800F436
:101E0000003010B10120009001E000200090009807
:101E1000012843D12348006840F0100021490860A0
:101E20000846006820F0030008600846006840F09B
:101E3000020008601A48406819494860084640682E
:101E400048600846406840F4806048600846406842
:101E500020F47C1048600846406840F4E810486070
:101E60000846006840F08070086000BF0C480068B9
:101E700000F000700028F9D00948406820F0030005
:101E8000074948600846406840F00200486000BFCB
:101E90000348406800F00C000828F9D10CBD000090
:101EA000001002400020024010B5FEF78FF902F04A
:101EB000DBFB18B14FF08050024908600020FEF7AC
:101EC0008CF910BD04ED00E010B51348006840F037
:101ED00001001149086008464068104908400E4951
:101EE0004860084600680E4908400B4908600846EB
:101EF000006820F4802008600846406820F4FE0056
:101F000048604FF41F008860FFF75AFF4FF00060F1
:101F10000449086010BD0000001002400000FFF8F6
:101F2000FFFFF6FE08ED00E010B5184800681849FC
:101F3000B0FBF1F0401E174908804FF6FF701649BC
:101F400088801448008808800020C8804880134892
:101F500000F0AEF930201249088001204880114875
:101F60000088C880022008810C4800F043F9002155
:101F70000A4800F08FF90021084800F012F9012208
:101F80000821064800F02DF910BD0000DC000020FB
:101F9000400D0300A800002034020020000400408F
:101FA0003E020020A000002010B508210D4800F0DE
:101FB00007F9B0B108210B4800F0F0F8094800F02B
:101FC000FCF80949088008460088084A128810442D
:101FD00081B2044800F067F905480068401C0449D4
:101FE000086010BD00040040AA000020B4000020DA
:101FF000AC00002010B5184800681849B0FBF1F09B
:10200000401E174908804FF6FF7016498880144813
:10201000008808800020C8804880134800F048F9F4
:102020003020124908800120488011480088C8806B
:10203000022008810C4800F0DDF800210A4800F079
:1020400029F90021084800F0ACF8012208210648CF
:1020500000F0C7F810BD0000DC000020400D0300B8
:10206000A800002034020020000800403E020020AA
:10207000A000002010B508210D4800F0A1F8B0B173
:1020800008210B4800F08AF8094800F096F8094941
:10209000088008460088084A1288104481B2044823
:1020A00000F001F905480068401C0449086010BDB3
:1020B00000080040AA000020B6000020B000002068
:1020C0003EB5002401210820FFF7B6FBFFF7A4FB73
:1020D000154800681549B0FBF1F0401E84B24CF27F
:1020E0004F30ADF80400ADF800400020ADF8060018
:1020F000ADF8020069460E4800F0DAF801210C48FC
:1021000000F040F801221146094800F06AF8002169
:10211000074800F0CAF80121054800F03FF8012106
:10212000034800F03EF83EBDDC000020A086010020
:10213000000C004010B50121064800F041F840B104
:102140000121044800F02AF803480068401C0249B5
:10215000086010BD000C0040B800002010B501213F
:10216000064800F02DF840B105480068401C0449BD
:1021700008600121014800F011F810BD0010004076
:102180001000002021B1028842F08002028004E0A9
:1021900002884FF67F731A4002807047CA4302825A
:1021A000704721B1028842F00102028004E00288F7
:1021B0004FF6FE731A40028070470146888F7047C1
:1021C00030B50246002000230024158A05EA0103E9
:1021D000958905EA010413B10CB1012000E000204B
:1021E00030BD1AB183890B43838102E083898B431D
:1021F0008381704770B5002400220023058C4FF6C0
:10220000FF6635400584028C8388848B4FF68F757A
:102210002C404FF6FC752C400D882C434FF6FF5593
:102220002A400D894FF6FF7606EA05252A434D8898
:1022300006EA05252A43154DA84202D0144DA842AE
:102240001DD14FF2FF752A404D894FF6FF7606EA01
:1022500005252A434FF6FF352A408D8806EA0525D5
:102260002A434EF6FF752B404DF6FF752B408D89A6
:1022700006EA05152B43CD8906EA05152B43838015
:102280008483CD888587028470BD0000002C0140C6
:10229000003401400A460021818B4FF6F773194044
:1022A00011438183704781877047818470470000A4
:1022B000002202881D4B98420ED01D4B98420BD035
:1022C000B0F1804F08D01B4B984205D01A4B984272
:1022D00002D01A4B984204D14FF68F731A404B88A4
:1022E0001A43174B984207D0164B984204D04FF62A
:1022F000FF431A40CB881A4302808B8883850B8862
:1023000003850A4B98420BD0094B984208D00E4BDC
:10231000984205D00D4B984202D00D4B984201D106
:102320000B7A03860123838270470000002C014052
:10233000003401400004004000080040000C004050
:1023400000100040001400400040014000440140E3
:102350000048014010B5024800F0FEF810BD000032
:10236000C81A002010B5024800F0F6F810BD0000B1
:10237000F022002010B5024800F0EEF810BD000079
:102380005002002010B5024800F0E6F810BD000031
:10239000780A002010B5024800F0DEF810BD0000F9
:1023A000A012002001F40072B2F5007F00D100BF3E
:1023B000CA430280704721B1828942F4005282816F
:1023C00004E082894DF6FF731A408281704770B530
:1023D0000246002400230025002040F66A16B14280
:1023E00000D100BFC1F3421501F01F03012606FA18
:1023F00003F3012D02D19689334006E0022D02D16C
:10240000168A334001E0968A33400C12012606FA00
:1024100004F41688344013B10CB1012000E0002010
:1024200070BDF0B50346002400260025002040F6CC
:102430006A17B94200D100BF1846C1F3421401F037
:102440001F06012707FA06F5012C01D10C3004E024
:10245000022C01D1103000E014301AB107682F436C
:10246000076002E00768AF430760F0BD2DE9F04761
:1024700086B005460E460024A24600BFA1460027AE
:10248000B08900B100BF2F462C8A4CF6FF70044083
:10249000F08804432C82AC894EF6F3100440B088D7
:1024A00031890843718908430443AC81AC8A4FF6F3
:1024B000FF400440B0890443AC8201A8FFF7EAF969
:1024C0001F48874202D1DDF810A001E0DDF80CA022
:1024D000A88900F4004040B10AEBCA0000EB0A10E2
:1024E00031684900B0FBF1F807E00AEBCA0000EBE5
:1024F0000A1031688900B0FBF1F86420B8FBF0F0F5
:1025000004012009642101FB1089A88900F400401E
:1025100040B1322000EBC900B0FBF1F000F0070041
:10252000044308E0322000EB09106421B0FBF1F015
:1025300000F00F0004432C8106B0BDE8F0870000D6
:102540000038014001468888C0F308007047C1F395
:10255000080282807047000070B5044600BF40F258
:1025600025512068FFF733FFE0B12068FFF7EAFF4D
:10257000C5B2E18AA0684554E08A401C80B2E0827E
:10258000E189884201DB0020E082608BE18988429A
:1025900002DA608B401C6083606A10B12846616A71
:1025A000884737E040F224414148FFF710FF48B127
:1025B0003F480088C6B23E48001D0088C6B20120D0
:1025C0003C49087040F224413B48FFF700FF48B106
:1025D00039480088C6B23848001D0088C6B20120BC
:1025E0003649087040F224413548FFF7F0FE88B1C3
:1025F00033480088C6B23248001D0088C6B200F0D9
:10260000C5FD3049086000202F4908602F48006848
:1026100001F004FF40F227712068FFF7D8FE08B3ED
:10262000A08A60B9002240F227712068FFF7F9FE06
:10263000012240F226612068FFF7F3FE37E0638A4B
:102640006268D15C2068FFF782FF608A401C80B21C
:102650006082A189884201DB00206082A08A401E3E
:10266000A08224E040F226612068FFF7B0FEF0B1BE
:10267000A08A50B9002240F226612068FFF7D1FEFF
:10268000206AA0B1206A804711E0638A6268D15C49
:102690002068FFF75CFF608A401C80B26082A189DD
:1026A000884201DB00206082A08A401EA08270BDAB
:1026B00000380140C000002000440040C10000205C
:1026C0000048004018000020C40000201C0000202A
:1026D000F8B504460E461746002525E00CE001F04B
:1026E00047FAA08A009001F065FAA089BDF80010B1
:1026F000884200DD01E000BFF1E700BF705D228A83
:102700006168885401F034FA208A401C80B220822B
:10271000A189884201DB00202082A08A401CA0827F
:1027200001F048FA681C85B2BD42D7DB012240F2B5
:1027300027712068FFF775FEF8BD00003448354961
:10274000086035484860354888604FF4806088816B
:10275000C881002008824882C88208834883888212
:10276000C861086248622E482E4908602E484860B9
:102770002E4888604FF480608881C88100200882DC
:102780004882C882088348838882C8610862486298
:1027900027482849086028484860284888604FF43E
:1027A00080608881C881002008824882C8820883AE
:1027B00048838882C86108624862214821490860CC
:1027C00021484860214888604FF480608881C88132
:1027D000002008824882C882088348838882C861B2
:1027E000086248621A481B4908601B4848601B4839
:1027F00088604FF480608881C88100200882488208
:10280000C882088348838882C8610862486270472A
:102810000038014050020020780200207806002095
:1028200000440040780A0020A00A0020A00E0020EA
:1028300000480040A0120020C8120020C816002046
:10284000004C0040C81A0020F01A0020F01E0020A2
:1028500000500040F02200201823002018270020FC
:1028600000BFFEE7704700000FB4054B10B503A989
:10287000044A029800F018F810BC5DF814FB000040
:10288000193100085401002002E008C8121F08C1D5
:10289000002AFAD170477047002001E001C1121FE1
:1028A000002AFBD1704700002DE9FF4F8BB09A46FC
:1028B0000F460546002606E025280BD052460D9906
:1028C00090476D1C761C28780028F5D10FB0304653
:1028D000BDE8F08F0024A0460122604900E00443D7
:1028E00015F8013F203B02FA03F00842F7D128789F
:1028F0002E2817D115F8010F44F004042A280ED011
:102900006FF02F022878A0F1300109290AD808EBCE
:10291000880102EB410100EB01086D1CF2E757F85A
:10292000048B6D1C287869283ED006DC0028CDD0A9
:1029300063280BD0642804D136E0732810D07528A2
:102940004BD052460D999047761C85E017F8040B42
:102950008DF8000000208DF80100E946012003E019
:1029600057F8049B4FF0FF3061074FF0000401D48B
:102970000AE0641C44450DDA8442FADB19F80410BD
:102980000029F6D106E0641C8442FCDB19F804102F
:102990000029F8D1264404E019F8010B52460D999C
:1029A0009047641EF8D257E001CF4FF00A0B002881
:1029B00002DA40422D2102E0210504D52B218DF8B9
:1029C0002410012103E0E10705D02021F7E70DF1F4
:1029D000200908910CE00021F9E701CF4FF00A0B24
:1029E000F9E75946FDF74DFE01F1300209F8012DD6
:1029F0000028F6D1ADEB090000F1200B600701D4EF
:102A00004FF00108D84502DDA8EB0B0000E00020E4
:102A10008046002406E009A85246005D0D999047C3
:102A2000641C761C08988442F5DB04E03020524692
:102A30000D999047761CB8F10001A8F10108F5DC6A
:102A400005E019F8010B52460D999047761CBBF131
:102A50000001ABF1010BF4DC6D1C34E70928010027
:102A60002DE9F04FA7B04FF0190B002700240025E7
:102A700000202690259023902490219022900026DB
:102A800082468046DFF8E4917948007800286FD0CC
:102A9000002077490870774880687649098B405C48
:102AA000AA2872D173488168008B401C085C5528A5
:102AB000F7D170488168008B801C0E5C00BF022536
:102AC00008E06C4880686B49098B2944405C4740AA
:102AD000681CC5B2F01C8542F3DB66488168008B38
:102AE0003044C01C085CB842DBD162488068614A4F
:102AF000128B1044C11C324601A8FDF787FB00244D
:102B000098E02046611CCCB201A911F800A0204633
:102B1000611CCCB201A911F80080BAF1060F37D0C0
:102B20000CDCBAF1010F16D0BAF1030F21D0BAF1C3
:102B3000040F2BD0BAF1050F77D128E0BAF1090FB5
:102B400032D0BAF1110F3BD0BAF1120F4CD0BAF11A
:102B5000130F6AD15CE09DF81600474908709DF894
:102B600017008DF898009DF818008DF899005DE029
:102B700079E0002506E0601901A9085C25A94855FF
:102B8000681CC5B2032DF6DB50E069E04EE04DE075
:102B9000002506E0601901A9085C21A94855681CB8
:102BA000C5B24545F6DB41E0002506E0601901A904
:102BB000085C23A94855681CC5B2082DF6DB35E032
:102BC00001A8005D2D49C87001A9601C085C2B4953
:102BD000887001A9A01C085C2849487001A9E01C64
:102BE000085C2649087021E001A8005D2449C870EE
:102BF00001A9601C085C2249887001A9A01C085C1E
:102C00001F49487001A9E01C085C1D4908700DE0CF
:102C1000002506E0601901A9085C09F8010B681C91
:102C2000C5B20C2DF6DB01E0FFE700BF00BF04EBEF
:102C30000800C4B2B442FFF664AF1248BDF8981061
:102C400001801148BDF8941001809DF896108170A4
:102C50000E4823990160249941600D4821994160F3
:102C6000012000F0B7F827B0BDE8F08F0C0200207B
:102C7000C1000020780A00202000002095000020DC
:102C800099000020210000202300002026000020C1
:102C90002E00002010B54FF44070FEF7B3FD00F099
:102CA00041F800F009F8FDF77DFF00F0C1FD00F0EC
:102CB00099FAFFF705FA10BD08B501210420FEF7C7
:102CC000CBFD012000F036F8022000F033F803209D
:102CD00000F030F8042000F02DF803208DF80200F9
:102CE00010208DF803000220ADF8000069460C4862
:102CF000FDF7C8FE0220ADF8000069460848FDF760
:102D0000C1FE0220ADF8000069460548FDF7BAFE95
:102D10000220ADF8000069460148FDF7B3FE08BD8A
:102D20000008014010B5FFF709FDFEF7DBF8FDF7DD
:102D30003BFE10BD411EC8B218B902210A4A1160FB
:102D400010E0012803D10221074A11600AE002289D
:102D500003D10221044A116004E0032802D10221B8
:102D6000014A11607047000010080140012806D197
:102D70001049096881F002010E4A116019E0022829
:102D800006D10C49096881F002010A4A116010E07D
:102D9000032806D10749096881F00201054A11603C
:102DA00007E0042805D10349096881F00201014ABE
:102DB000116070470C08014010B502460023002046
:102DC00004E0145C1C44E3B2441CE0B28842F8DB2B
:102DD000184610BD00B503461846FDF7C5FD02466E
:102DE00002B900BD0020D0821083508300BFF8E7F5
:102DF0002DE9F04105460E4617462846FDF7B4FD7D
:102E000004460CB9BDE8F081E06908B1E06980478B
:102E10003A4631462046FFF75BFC00BFF2E713B5A8
:102E20000446012201A92046FFF7E2FF1CBDC100B4
:102E300000BF0A00A1F10101FBD170472DE9F04F5D
:102E400087B081460C4644B9B9F1000F05D1002086
:102E5000A5490880A5490880F4E0ECB9B9F1000F54
:102E60001AD04846FDF79FFB0646A149FDF74AFAEE
:102E70000546FDF7B2FB00B29B4908804846FDF7C6
:102E800092FB06469A49FDF73DFA0546FDF7A5FB7C
:102E900000B296490880D5E0002C45D0B9F1000F6A
:102EA00042D12046FDF788FB07460022914BFDF7F3
:102EB00099FA0022904BCDE90001FDF705FB0022B5
:102EC0008E4BCDE90201FDF78DFA4FF080428C4B1D
:102ED000CDE90401FDF786FA0546FDF797FB00B240
:102EE000824908806042FDF767FB0022814BCDE9F3
:102EF0000001FDF777FA00227F4BCDE90201FDF7D3
:102F0000E3FA00227D4BCDE90401FDF76BFA074699
:102F10004FF080427A4BFDF765FA0546FDF776FBE8
:102F200000B2714908808DE02046FDF745FB002284
:102F3000704BCDE90201FDF755FA05460E464846AD
:102F4000FDF73AFB00226B4BCDE90201FDF74AFA8F
:102F50002A463346CDE90401FDF7B6FA0746FDF7E8
:102F600074FB824651466748FDF7CCF98346002C36
:102F700034DD65495846FDF76DF905904846FDF783
:102F800012FB80465A49FDF7BDF907460599FDF742
:102F9000B9F906465946FDF7E7F90546FDF71DFB69
:102FA00000B25249088058495846FDF7A5F90590E6
:102FB0004846FDF7F8FA80464D49FDF7A3F9074664
:102FC0000599FDF79FF906465946FDF7CDF90546E7
:102FD000FDF703FB00B24449088033E04A495846F4
:102FE000FDF78AF905904846FDF7DDFA804640492D
:102FF000FDF788F907460599FDF784F90646594615
:10300000FDF7B2F90546FDF7E8FA00B23649088047
:103010003D495846FDF71EF905904846FDF7C3FAAD
:1030200080463349FDF76EF907460599FDF76AF9C1
:1030300006465946FDF798F90546FDF7CEFA00B267
:103040002A4908802848B0F90000012101EBE0700E
:103050002E4908702548B0F90000C00F2C490870AF
:1030600021480088C8B921480088B0B92948007DA6
:10307000082806D00020FEF7D1F900210846FEF707
:10308000B7F92448407D08282BD00120FEF7C6F967
:1030900000210120FEF7ACF923E01349B1F90050FB
:1030A000002D01DB294600E0694208B200F0B0FCC7
:1030B00006463246154801780020FEF735F90B49DF
:1030C000B1F90050002D01DB294600E0694208B249
:1030D00000F09EFC064632460D4801780120FEF7BE
:1030E00023F907B0BDE8F08F5400002056000020FF
:1030F000FAD18F3F0000F03F00408F4000606540F4
:103100003FFAF13F00007A4400002B4358000020B2
:10311000590000201802002070B504460D46E1B2A7
:103120000020FFF77CFE204670BD000010B5032292
:1031300004491046FFF75CFE032202490420FFF712
:1031400057FE10BD880000200146002000BF05E0AA
:10315000094A125C01F8012B421CD0B20228F7DBAD
:10316000002005E0054A125C01F8012B421CD0B298
:103170000228F7DB70470000E4010020F401002082
:1031800001480078704700004400002000BF054956
:1031900008880549096840F63542514300EB0110A3
:1031A00070470000240C0040B8000020FFF772FDBB
:1031B00003220021012000F09BFF09490860084616
:1031C000006830B100231A4619460548006801F02E
:1031D00091F8FDF75DFB00F07FFE00BFFEE7000009
:1031E0001C00002008B501217C20FEF735FB4020A3
:1031F000ADF8000010208DF8030003208DF80200C8
:1032000069461B48FDF73EFC8020ADF8000069468A
:103210001748FDF737FC4020ADF8000010208DF86E
:10322000030003208DF8020069461248FDF72AFCCE
:103230008020ADF8000069460E48FDF723FC4021D0
:103240000B48FDF7AAFC80210948FDF7A6FC4021A8
:103250000848FDF7A2FC80210648FDF79EFC0121ED
:103260000020FEF799F800210120FEF795F808BD2F
:1032700000080140000C01404FF4FA600649088044
:1032800000204880012088804FF47A60034908803C
:103290000020488088807047380000203E000020D1
:1032A00010B504460E48006844600E480068844229
:1032B00007D20B480168091D0B48006800F032FC7A
:1032C0000CE007480168091D0848006800F02AFC66
:1032D00007480068844201D20548046010BD000020
:1032E000F000002004010020F8000020F40000207D
:1032F000200100202DE9F04105460F461FB9A80026
:1033000000F00CFA00E03846064656B1582000F0AE
:1033100005FA04460CB1266304E0304600F060FC78
:1033200000E0002424B1A900A522206BFCF780FF57
:103330002046BDE8F081000070B523E000F000FEFB
:103340001348006808B9012000E00020054601F09C
:103350006FFABDB900F00CFC0D48C068C468201DB0
:1033600000F0BCFB0B480068401E0A4908600A4890
:103370000068401E0849086000F01CFC204600F070
:1033800059F800BF044800680028D7D170BD00007C
:10339000B82B002000010020FC00002070B504467E
:1033A0000D46206C70B1216CE0680844E0606168F3
:1033B000E068884201D32068E0602846226CE1681A
:1033C000FCF724FF70BD2DE9F04104460E4615467A
:1033D0000027206C40B37DB93146226CA068FCF711
:1033E00015FF216CA0680844A060D4E90110884250
:1033F0001AD32068A06017E03146226CE068FCF721
:1034000005FF216CE068401AE0602168E0688842AE
:1034100003D2216C6068401AE060022D04D1A06BD9
:1034200010B1A06B401EA063A06B401CA063384687
:10343000BDE8F08110B50446206B00F0D1FB2046BA
:1034400000F0CEFB10BD000030B54FF488431748A4
:1034500000F007042CB1C01D20F00700134C041B22
:103460001B1B0246124C22600024114D6C60D018C8
:10347000083820F007000F4C206000240D4D2D6807
:103480006C600C4D2D682C601146441A4C60094C40
:1034900024680C60084D4C682C60084D4C682C600A
:1034A0004FF00044064D2C6030BD0000E02B0020A2
:1034B0003C010020440100204C0100204801002074
:1034C0005001002000BFFFF737FF034800680128C4
:1034D000F9D900F0F9FBF6E7182B00202DE9F047A9
:1034E00004460F4616469946DDF82080002507E081
:1034F000795D04F134004155785D00B902E06D1C3E
:10350000102DF5D300BF002143200155052E00D317
:103510000426E662201D00F002FB04F1180000F012
:10352000FEFA2461C6F10500A06164620020E06437
:10353000206584F85400BDE8F087000010B5002431
:1035400007E004EB84010F4A02EB810000F0DAFA95
:10355000641C052CF5D30C4800F0D4FA0B4800F09D
:10356000D1FA0B4800F0CEFA0A4800F0CBFA0A482C
:1035700000F0C8FA0448094908600448084908608E
:1035800010BD0000182B00207C2B0020902B002069
:10359000A42B0020B82B0020CC2B0020F40000200E
:1035A000F800002010B50146164800E000680368E6
:1035B0008B42FBD30246436813448B4204D14368D9
:1035C0004C682344436001460A464B681344046830
:1035D000A34211D10C4C03682468A34208D04B6865
:1035E0000468646823444B6003681B680B6005E053
:1035F000054B1B680B6001E003680B60884200D03C
:10360000016010BD3C0100204401002070B505465A
:1036100000F0AEFAA86B08B9012400E0002400F025
:10362000C9FA204670BD70B5054600F0A1FAA86B36
:10363000E96B884201D1012400E0002400F0BAFACD
:10364000204670BD0A490968096809B9012100E0EE
:10365000002121B14FF0FF31064A116006E0044914
:103660000968C968C868034A41681160704700006A
:10367000F40000202001002007480068401C08B921
:10368000012000E0002018B9FCF7A0FD00BFFEE714
:10369000FCF79CFD00BFFEE73001002010B504469A
:1036A00000F066FA11E0606A08B9012000E000202D
:1036B00038B904F1240001F075F818B100F0B4FB3A
:1036C00000E005E0A06C401EA064A06C0028EADCCD
:1036D00000BF4FF0FF30A06400F06CFA00F048FA31
:1036E00011E0206908B9012000E0002050B904F180
:1036F000100001F057F808B100F096FB606C401E16
:10370000606400E002E0606C0028EADC00BF4FF07B
:10371000FF30606400F04EFA10BD00002DE9F0416A
:1037200004464FF0000800F00BFC3C48006808B964
:10373000FFF78AFE3A480068204000285DD19CB11E
:10374000083404F0070078B104F00700C0F1080065
:10375000044404F0070008B9012000E0002018B973
:10376000FCF734FD00BFFEE7002C46D02D48006872
:10377000844242D82C4E3046056801E02E462D6822
:103780006868A04202D228680028F7D12348006860
:10379000854232D0306800F10808286830606868D7
:1037A000001B102812D92F1907F0070008B90120B3
:1037B00000E0002018B9FCF709FD00BFFEE76868CB
:1037C000001B78606C603846FFF7ECFE15496868AE
:1037D0000968081A1349086008460068134909680F
:1037E000884203D20F480068104908600C49686895
:1037F0000968084368600020286001F019F808F0A3
:10380000070008B9012000E0002018B9FCF7DEFC31
:1038100000BFFEE74046BDE8F08100004401002003
:1038200050010020480100203C0100204C010020F4
:1038300010B5FEF721F8FDF78EFFFDF703F9FEF74F
:1038400073FBFEF7D7FB10BD001F4FF080730360C2
:10385000001F0160001F034B036014380260203812
:10386000704700007936000808B51A208DF800006E
:103870005B480088000A8DF80100594800788DF8EF
:10388000020003216846FFF797FA8DF8030004222F
:1038900069460320FFF7ACFA042269461046FFF799
:1038A000A7FA642000F024FA1B208DF800004C4891
:1038B0004088000A8DF80100494880788DF80200A0
:1038C00003216846FFF778FA8DF803000422694661
:1038D0000320FFF78DFA042269461046FFF788FAA5
:1038E000642000F005FA1C208DF800003C48808818
:1038F000000A8DF801003A4800798DF80200032192
:103900006846FFF759FA8DF8030004226946032040
:10391000FFF76EFA042269461046FFF769FA642041
:1039200000F0E6F940208DF800002E480088000ADB
:103930008DF801002B4800788DF8020003216846BD
:10394000FFF73AFA8DF80300042269460320FFF7D7
:103950004FFA042269461046FFF74AFA642000F045
:10396000C7F941208DF800001E484088000A8DF8F4
:1039700001001C4880788DF8020003216846FFF79B
:103980001BFA8DF80300042269460320FFF730FA82
:10399000042269461046FFF72BFA642000F0A8F9CC
:1039A00042208DF800000F488088000A8DF8010041
:1039B0000C4800798DF8020003216846FFF7FCF9F6
:1039C0008DF80300042269460320FFF711FA042250
:1039D00069461046FFF70CFAC82000F089F908BDC7
:1039E000380000203E00002059B128B9054A92FB5A
:1039F000F1F2054B1A8004E0024A92FBF1F2034B0C
:103A00001A807047A0860100B4000020B600002094
:103A10000146002201B91EE0081E01DB034600E05A
:103A20004342002B06DA002901DD002000E00020DF
:103A3000024610E0081E01DB034600E04342B3F5F6
:103A4000167F07DD002902DD4FF4167000E0034801
:103A5000024600E00A46104670470000A8FDFFFF3E
:103A6000014600200A034FF4167392FBF3F290B262
:103A70007047000010B5044644B90020084908808A
:103A8000012107482438FEF78CFB07E00020054998
:103A90000880012103482438FEF783FB10BD000095
:103AA000240400402408004010B5044644B9002016
:103AB00008490880002107482438FEF772FB07E018
:103AC000002005490880002103482438FEF769FBDF
:103AD00010BD0000240400402408004001460A698B
:103AE000D1E901309860D1E90103586050688842FB
:103AF00001D188685060002008611068401E106085
:103B00001068704700F1080141604FF0FF3181609B
:103B100000F10801C16001610021016070470021CE
:103B20000161704710B502460B685C1C0CB9106946
:103B300007E002F1080000E04068446824689C4205
:103B4000FAD944684C604C68A160886041600A61A1
:103B50001468641C146010BD42684A6093688B60EE
:103B6000936859609160086103685B1C036070474B
:103B700010B5FCF72BFB0D480068401C0B49086092
:103B8000BFF34F8FBFF36F8F0846006801280BD13A
:103B900007480068C0B208B9012000E0002018B949
:103BA000FCF714FB00BFFEE710BD00003001002051
:103BB00004ED00E010B50948006818B9FCF706FBF1
:103BC00000BFFEE705480068401E0449086008463B
:103BD000006810B90020FCF700FB10BD3001002088
:103BE00070B506463546002E31D0083D2C461849A2
:103BF00060680968084008B1012000E0002018B999
:103C0000FCF7E4FA00BFFEE7206808B9012000E0F5
:103C1000002018B9FCF7DAFA00BFFEE70C4960682B
:103C20000968084098B1206888B90949606809683E
:103C30008843606000F084F90649606809680844B8
:103C4000044908602046FFF7ADFC00F0F1FD70BDAF
:103C5000500100204801002003484FF0E021486156
:103C600007200861704700003F19010070B5FCF79C
:103C7000B7FA0546102D0FD305F1E02090F8F04378
:103C80000E480078844201DB012000E0002018B9D2
:103C9000FCF79CFA00BFFEE70948006800F4E0600A
:103CA00008490968884201D8012000E0002018B9BD
:103CB000FCF78CFA00BFFEE770BD00003401002065
:103CC0000CED00E0380100204FF0805003490860FF
:103CD000BFF34F8FBFF36F8F7047000004ED00E01C
:103CE00004E0FEF7BDFE0A2000F002F8F9E700004C
:103CF00070B50446002634B31548006808B90120A1
:103D000000E0002018B9FCF761FA00BFFEE700F000
:103D100017F91048006805190F480068001DFFF7E3
:103D2000DDFE50B90C48006890F82C100120884046
:103D30000A4909688143094801602846FFF7B0FA3B
:103D400000F076FD06460EB9FFF7BEFF70BD00001D
:103D50002401002004010020F000002008010020C0
:103D60002DE9F04704460E464FF000091CB9FCF758
:103D70002DFA00BFFEE70EB1012000E0002018B9C7
:103D8000FCF724FA00BFFEE72148006808B90120CB
:103D900000E0002018B9FCF719FA00BFFEE700F0B8
:103DA000CFF81C48D0F8008020688519206840456D
:103DB00007D92068A8420BD9454509D94FF0010918
:103DC00006E02068A84201D8454501D94FF0010915
:103DD0002560B9F1000F13D00F480068001DFFF7F0
:103DE0007DFE50B90C48006890F82C1001208840E6
:103DF0000A4909688143094801602846FFF750FADB
:103E000000F016FD07460FB9FFF75EFFBDE8F0872B
:103E10002401002004010020F000002008010020FF
:103E200001E0FCF7FDFEFCE7012001490860704756
:103E30001401002004E0FDF7CDF90320FFF758FF3F
:103E4000F9E7000070B505460C461DB9FCF7BEF950
:103E500000BFFEE71348016818312846FFF762FEED
:103E600010480068001DFFF739FE50B90D48006882
:103E700090F82C10012088400B49096881430A48BA
:103E80000160601C30B907480168091D0748FFF749
:103E900063FE05E00648006806193046FFF700FAA1
:103EA00070BD0000F000002008010020CC2B002095
:103EB0000401002010B504461CB9FCF787F900BFC7
:103EC000FEE703480068206002480068606010BD9B
:103ED00018010020040100201FB50020009001906F
:103EE0000290034680220FA10390104800F01AFBB5
:103EF0000446012C0FD1FCF769F9A01E0C4908609B
:103F000001200C49086000200B4908600B4908603B
:103F100000F09EF804E01CB9FCF758F900BFFEE77A
:103F20001FBD000049444C4500000000C534000896
:103F3000200100200C0100200401002010000020BE
:103F400002480068401C01490860704724010020B5
:103F500010B52748006818B101202649086045E0DF
:103F60000020244908602448006824490860084665
:103F700000682349096888420BD92249096801F180
:103F80004C00C96C1D4A12681D4B1B68D21A1144A3
:103F900001601A4800681A4908601B480068B0FAB6
:103FA00080F0C0F11F0404EB8400184951F8200090
:103FB00008B1012000E0002018B9FCF707F900BFA4
:103FC000FEE704EB8401114A02EB81004168496875
:103FD000416000F1080142688A4202D141684968A3
:103FE00041604168C968074A116000BF10BD000008
:103FF0002401002014010020100000202C010020CA
:1040000028010020F000002008010020182B0020CB
:1040100008B500BF00F022FB009016E014216846AE
:10402000FFF79EFEFFF782F8FFF7B0F80749086038
:1040300014216846FFF794FEFDF70CFAFEF712FC18
:10404000FDF792FC0120FEF791FEE7E760000020FB
:104050001CB52248014609780191FF2102461170E2
:104060000146097800919DF8001001F010011C4AEA
:10407000117007211B4A116009E01A490968491E9D
:10408000184A11609DF800104906090E00919DF82C
:10409000001001F080018029EFD01249096809025F
:1040A000104A11601146098801F4E06111600B4A61
:1040B000019911700C48006840F470000A490860CA
:1040C0000846006840F070400860FFF7C5FD00201A
:1040D00006490860FCF748F800201CBD00E400E039
:1040E000340100203801002020ED00E030010020E4
:1040F0002DE9F04706460D4690464FF000090EB1F7
:10410000012000E0002018B9FCF760F800BFFEE7CE
:104110000DB9002702E006FB05F0471C07F154002B
:10412000FFF7FCFA044674B10DB9246002E004F113
:1041300054002060E66325640121204600F09EF8CB
:1041400084F85080A146B9F1000F03D1FCF73EF886
:1041500000BFFEE74846BDE8F0872DE9FF4383B086
:1041600005460E461F464FF000092C461CB9FCF7C9
:104170002DF800BFFEE70EB9206C08B9012000E061
:10418000002018B9FCF722F800BFFEE700BFFFF7D8
:10419000EFFCA06B68B3D4F80C8031462046FFF7E3
:1041A000FDF88FB9A06B401EA063206908B90120FB
:1041B00000E00020B8B904F1100000F0F3FA012883
:1041C00011D1FFF781FD0EE0C4F80C80606A08B9D8
:1041D000012000E0002030B904F1240000F0E2FAF0
:1041E00008B1FFF771FDFFF7E5FC012007B0BDE85E
:1041F000F083059818B9FFF7DDFC0020F6E7B9F168
:10420000000F04D101A8FFF755FE4FF00109FFF799
:10421000D1FCFFF795FEFFF7ABFC606C401C08B9C2
:1042200000206064A06C401C08B90020A064FFF767
:10423000C1FC05A901A800F03BF9C0B92046FFF771
:10424000E5F970B104F124000599FFF7FBFD204664
:10425000FFF724FA00F0ECFA002898D1FFF734FDBC
:1042600095E72046FFF71AFA00F0E2FA8FE72046BA
:10427000FFF714FA00F0DCFA0020B7E770B5054646
:104280000E462C461CB9FBF7A1FF00BFFEE7FFF767
:104290006FFCD4E90F12206801FB0200606000206F
:1042A000A0632068A060E06B401E226C216800FBC8
:1042B0000210E0604FF0FF306064A06476B92069BE
:1042C00008B9012000E0002080B904F1100000F0DE
:1042D00069FA01280AD1FFF7F7FC07E004F11000A2
:1042E000FFF710FC04F12400FFF70CFCFFF762FC61
:1042F000012070BD2DE9FF4383B0064688461D4668
:104300004FF0000934461CB9FBF760FF00BFFEE721
:10431000B8F1000F01D1206C08B9012000E00020A5
:1043200018B9FBF753FF00BFFEE7022D02D1E06B87
:10433000012801D1012000E0002018B9FBF746FF59
:1043400000BFFEE700BFFFF713FCA06BE16B8842E4
:1043500001D3022D1DD12A4641462046FFF733F8EE
:104360000746606A08B9012000E0002040B904F166
:10437000240000F017FA012805D1FFF7A5FC02E0A0
:104380000FB1FFF7A1FCFFF715FC012007B0BDE856
:10439000F083059818B9FFF70DFC0020F6E7B9F196
:1043A000000F04D101A8FFF785FD4FF00109FFF7C9
:1043B00001FCFFF7C5FDFFF7DBFB606C401C08B993
:1043C00000206064A06C401C08B90020A064FFF7C6
:1043D000F1FB05A901A800F06BF8C0B92046FFF772
:1043E00022F970B104F110000599FFF72BFD20466A
:1043F000FFF754F900F01CFA0028A4D1FFF764FC81
:10440000A1E72046FFF74AF900F012FA9BE72046A1
:10441000FFF744F900F00CFA0020B7E72DE9F0416E
:1044200005460E462C461CB9FBF7D0FE00BFFEE742
:10443000206C08B9012000E0002018B9FBF7C6FE87
:1044400000BFFEE7206808B9606808B9012000E0F5
:10445000002018B9FBF7BAFE00BFFEE7FFF706FC25
:10446000FBF7B4FE8046A06BE16B884219D2A06BCB
:10447000401CA063A06C401C70B9606A08B90120A0
:1044800000E0002058B904F1240000F08BF930B1AD
:104490002EB10120306002E0A06C401CA064012716
:1044A00000E000274046FBF798FE3846BDE8F08163
:1044B0002DE9F04104460D461CB9FBF787FE00BF0D
:1044C000FEE71DB9FBF782FE00BFFEE7FFF750FBDA
:1044D000124807682868401C08B9002619E01049EE
:1044E00020680968884204D06068B84201D8012673
:1044F0000FE06068381A2968884209D22868616824
:10450000791A401A28602046FFF7D4FC002600E004
:104510000126FFF74FFB3046BDE8F0810401002083
:10452000180100202DE9FF4F81B0804616469A46BB
:10453000DDE90E5BB8F1000F03D1FBF747FE00BFCA
:10454000FEE7052D01D2012000E0002018B9FBF79D
:104550003DFE00BFFEE730461099FEF7CBFE044655
:10456000002C5DD0701E216B01EB800929F007093A
:1045700009F0070008B9012000E0002018B9FBF796
:1045800025FE00BFFEE700962A462046119B0299B1
:10459000FEF7A4FF524641464846FFF755F9206012
:1045A000BBF1000F01D0CBF80040FFF7E1FA25483E
:1045B0000068401C234908602348006840B922482D
:1045C00004600846006801280CD1FEF7B7FF09E037
:1045D0001E48006830B91C480068C06AA84201D86B
:1045E000194804601A480068401C194908600846C8
:1045F0000068606494F82C1001208840154909680F
:10460000084314490860E16A01EB8101124A02EB98
:104610008100211DFFF7A0FA0127FFF7CBFA01E087
:104620004FF0FF37012F09D10848006830B1064824
:104630000068C06AA84201D2FFF746FB384605B0C1
:10464000BDE8F08F00010020F00000200C010020E8
:104650001C01002008010020182B002001490868D7
:1046600070470000040100202DE9F0414FF00008E0
:1046700041480068002872D140480068401C3F490A
:10468000086008460668DEB93D480068006808B959
:10469000012000E0002018B9FBF798FD00BFFEE7FD
:1046A000374807683748006835490860354807606B
:1046B00035480068401C34490860FEF7C3FF00BF5E
:1046C0003248006886423CD300BF2D48006800682D
:1046D00008B9012000E0002020B14FF0FF302B4945
:1046E00008602DE026480068C068C4686568AE426E
:1046F00002D22648056023E0201DFFF7EFF9A06AEB
:1047000018B104F11800FFF7E9F994F82C10012012
:1047100088401F49096808431D490860E16A01EBA8
:1047200081011C4A02EB8100211DFFF715FA1A498D
:10473000E06A0968C96A8842C7D34FF00108C4E734
:1047400000BF15480068C06A00EB8000114951F8AD
:104750002000012808D94FF0010805E0FFE70F48C5
:104760000068401C0D4908600D48006808B14FF012
:1047700001084046BDE8F08124010020040100202A
:10478000F4000020F8000020180100202001002083
:1047900008010020182B0020F0000020100100204C
:1047A0001401002070B50646F068C4681CB9FBF718
:1047B0000DFD00BFFEE704F11800FFF78FF9164862
:1047C0000068A8B9201DFFF789F994F82C10012082
:1047D000884012490968084310490860E16A01EB02
:1047E00081010F4A02EB8100211DFFF7B5F904E0BA
:1047F00004F118010B48FFF7AFF90B49E06A0968AB
:10480000C96A884204D9012501200849086000E0EE
:104810000025284670BD000024010020080100206A
:10482000182B0020A42B0020F000002014010020F1
:1048300070B500253048006818B9FBF7C7FC00BF09
:10484000FEE7FFF795F92C480068401E2A490860EA
:104850000846006800284BD128480068002847D047
:1048600024E02748C068C46804F11800FFF736F94F
:10487000201DFFF733F994F82C10012088402149BE
:10488000096808431F490860E16A01EB81011E4A7B
:1048900002EB8100211DFFF75FF91C49E06A0968FE
:1048A000C96A884202D30120194908601448006887
:1048B00008B9012000E000200028D2D01548006887
:1048C00078B10AE0FFF7D0FE10B10120104908606E
:1048D00010480068401E0F4908600E480068002814
:1048E000F0D10B480068012802D10125FFF7ECF94F
:1048F000FFF760F9284670BD240100200001002068
:10490000A42B002008010020182B0020F00000201C
:104910001401002010010020384900080000002088
:10492000580100003A080008884900085801002092
:104930008876000098280008016412022008C0C28E
:104940002D1388C84A134A021008C4C60A14143228
:10495000521401530627888E060111181401018094
:1049600032801B0105040238022D010203040410E9
:10497000090607080902040608ACA24A041C291803
:0849800001401AAA0101240004
:0400000508000131BD
:00000001FF
